{
  "_format": "hh-sol-artifact-1",
  "contractName": "AirdropERC20",
  "sourceName": "contracts/Airdrop.sol",
  "abi": [
    {
      "anonymous": false,
      "inputs": [
        {
          "indexed": true,
          "internalType": "address",
          "name": "previousOwner",
          "type": "address"
        },
        {
          "indexed": true,
          "internalType": "address",
          "name": "newOwner",
          "type": "address"
        }
      ],
      "name": "OwnershipTransferred",
      "type": "event"
    },
    {
      "inputs": [
        {
          "internalType": "address[]",
          "name": "recipients",
          "type": "address[]"
        },
        {
          "internalType": "uint256[]",
          "name": "amounts",
          "type": "uint256[]"
        }
      ],
      "name": "airdrop",
      "outputs": [],
      "stateMutability": "nonpayable",
      "type": "function"
    },
    {
      "inputs": [
        {
          "internalType": "address",
          "name": "_token",
          "type": "address"
        }
      ],
      "name": "connectToOtherContracts",
      "outputs": [],
      "stateMutability": "nonpayable",
      "type": "function"
    },
    {
      "inputs": [],
      "name": "owner",
      "outputs": [
        {
          "internalType": "address",
          "name": "",
          "type": "address"
        }
      ],
      "stateMutability": "view",
      "type": "function"
    },
    {
      "inputs": [],
      "name": "renounceOwnership",
      "outputs": [],
      "stateMutability": "nonpayable",
      "type": "function"
    },
    {
      "inputs": [
        {
          "internalType": "uint256",
          "name": "amount",
          "type": "uint256"
        }
      ],
      "name": "retrieveTokens",
      "outputs": [],
      "stateMutability": "nonpayable",
      "type": "function"
    },
    {
      "inputs": [],
      "name": "token",
      "outputs": [
        {
          "internalType": "address",
          "name": "",
          "type": "address"
        }
      ],
      "stateMutability": "view",
      "type": "function"
    },
    {
      "inputs": [
        {
          "internalType": "address",
          "name": "newOwner",
          "type": "address"
        }
      ],
      "name": "transferOwnership",
      "outputs": [],
      "stateMutability": "nonpayable",
      "type": "function"
    }
  ],
  "bytecode": "0x608060405234801561001057600080fd5b5061001a3361001f565b61006f565b600080546001600160a01b038381166001600160a01b0319831681178455604051919092169283917f8be0079c531659141344cd1fd0a4f28419497f9722a3daafe3b4186f6b6457e09190a35050565b6107448061007e6000396000f3fe608060405234801561001057600080fd5b506004361061007d5760003560e01c8063715018a61161005b578063715018a6146100bd5780638da5cb5b146100c5578063f2fde38b146100ee578063fc0c546a1461010157600080fd5b806309f29d1b146100825780633f5711ef1461009757806367243482146100aa575b600080fd5b6100956100903660046105bc565b610114565b005b6100956100a53660046105d5565b6102cc565b6100956100b8366004610651565b6102f6565b610095610485565b6000546001600160a01b03165b6040516001600160a01b03909116815260200160405180910390f35b6100956100fc3660046105d5565b610499565b6001546100d2906001600160a01b031681565b61011c610512565b6001546001600160a01b03166101735760405162461bcd60e51b8152602060048201526017602482015276151bdad95b881a185d99481b9bdd081899595b881cd95d604a1b60448201526064015b60405180910390fd5b6001546040516370a0823160e01b815230600482015282916001600160a01b0316906370a0823190602401602060405180830381865afa1580156101bb573d6000803e3d6000fd5b505050506040513d601f19601f820116820180604052508101906101df91906106bd565b10156102535760405162461bcd60e51b815260206004820152603960248201527f416d6f756e7420796f75207769736820746f207265747269657665206973206260448201527f6967676572207468656e2061637475616c2062616c616e636500000000000000606482015260840161016a565b60015460405163a9059cbb60e01b8152336004820152602481018390526001600160a01b039091169063a9059cbb906044016020604051808303816000875af11580156102a4573d6000803e3d6000fd5b505050506040513d601f19601f820116820180604052508101906102c891906106d6565b5050565b6102d4610512565b600180546001600160a01b0319166001600160a01b0392909216919091179055565b6102fe610512565b6001546001600160a01b03166103505760405162461bcd60e51b8152602060048201526017602482015276151bdad95b881a185d99481b9bdd081899595b881cd95d604a1b604482015260640161016a565b82811461039f5760405162461bcd60e51b815260206004820181905260248201527f417272617973206d7573742068617665207468652073616d65206c656e677468604482015260640161016a565b60005b8381101561047e576001546001600160a01b03166323b872dd338787858181106103ce576103ce6106f8565b90506020020160208101906103e391906105d5565b8686868181106103f5576103f56106f8565b6040516001600160e01b031960e088901b1681526001600160a01b039586166004820152949093166024850152506020909102013560448201526064016020604051808303816000875af1158015610451573d6000803e3d6000fd5b505050506040513d601f19601f8201168201806040525081019061047591906106d6565b506001016103a2565b5050505050565b61048d610512565b610497600061056c565b565b6104a1610512565b6001600160a01b0381166105065760405162461bcd60e51b815260206004820152602660248201527f4f776e61626c653a206e6577206f776e657220697320746865207a65726f206160448201526564647265737360d01b606482015260840161016a565b61050f8161056c565b50565b6000546001600160a01b031633146104975760405162461bcd60e51b815260206004820181905260248201527f4f776e61626c653a2063616c6c6572206973206e6f7420746865206f776e6572604482015260640161016a565b600080546001600160a01b038381166001600160a01b0319831681178455604051919092169283917f8be0079c531659141344cd1fd0a4f28419497f9722a3daafe3b4186f6b6457e09190a35050565b6000602082840312156105ce57600080fd5b5035919050565b6000602082840312156105e757600080fd5b81356001600160a01b03811681146105fe57600080fd5b9392505050565b60008083601f84011261061757600080fd5b50813567ffffffffffffffff81111561062f57600080fd5b6020830191508360208260051b850101111561064a57600080fd5b9250929050565b6000806000806040858703121561066757600080fd5b843567ffffffffffffffff8082111561067f57600080fd5b61068b88838901610605565b909650945060208701359150808211156106a457600080fd5b506106b187828801610605565b95989497509550505050565b6000602082840312156106cf57600080fd5b5051919050565b6000602082840312156106e857600080fd5b815180151581146105fe57600080fd5b634e487b7160e01b600052603260045260246000fdfea26469706673582212200e87783cde13b6d5728059af30335df2924b0c36b8b66c2f3a54eaa1aa6dab6164736f6c63430008100033",
  "linkReferences": {},
  "deployedLinkReferences": {}
}