{
  "_format": "hh-sol-artifact-1",
  "contractName": "Creator",
  "sourceName": "contracts/Creator.sol",
  "abi": [
    {
      "inputs": [
        {
          "internalType": "string",
          "name": "_name",
          "type": "string"
        },
        {
          "internalType": "address",
          "name": "_marketplace",
          "type": "address"
        }
      ],
      "name": "deployERC1155",
      "outputs": [
        {
          "internalType": "address",
          "name": "",
          "type": "address"
        }
      ],
      "stateMutability": "nonpayable",
      "type": "function"
    },
    {
      "inputs": [
        {
          "internalType": "string",
          "name": "_name",
          "type": "string"
        },
        {
          "internalType": "string",
          "name": "_symbol",
          "type": "string"
        },
        {
          "internalType": "address",
          "name": "_minter",
          "type": "address"
        }
      ],
      "name": "deployERC721",
      "outputs": [
        {
          "internalType": "address",
          "name": "",
          "type": "address"
        }
      ],
      "stateMutability": "nonpayable",
      "type": "function"
    },
    {
      "inputs": [
        {
          "internalType": "address",
          "name": "",
          "type": "address"
        }
      ],
      "name": "deployedTokenContract",
      "outputs": [
        {
          "internalType": "bool",
          "name": "",
          "type": "bool"
        }
      ],
      "stateMutability": "view",
      "type": "function"
    },
    {
      "inputs": [
        {
          "internalType": "contract IERC721Deployer",
          "name": "_erc721Deployer",
          "type": "address"
        },
        {
          "internalType": "contract IERC1155Deployer",
          "name": "_erc155Deployer",
          "type": "address"
        }
      ],
      "name": "setDeployerAddress",
      "outputs": [],
      "stateMutability": "nonpayable",
      "type": "function"
    }
  ],
  "bytecode": "0x608060405234801561001057600080fd5b50610528806100206000396000f3fe608060405234801561001057600080fd5b506004361061004c5760003560e01c806340a42ce7146100515780638e537fe814610089578063a6946be4146100b4578063fcf5aa61146100f2575b600080fd5b61007461005f366004610268565b60026020526000908152604090205460ff1681565b60405190151581526020015b60405180910390f35b61009c61009736600461032f565b610105565b6040516001600160a01b039091168152602001610080565b6100f06100c2366004610381565b600080546001600160a01b039384166001600160a01b03199182161790915560018054929093169116179055565b005b61009c6101003660046103af565b6101ab565b6001546040516301f249f360e01b815260009182916001600160a01b03909116906301f249f39061013c908790879060040161046d565b6020604051808303816000875af115801561015b573d6000803e3d6000fd5b505050506040513d601f19601f8201168201806040525081019061017f9190610497565b6001600160a01b0381166000908152600260205260409020805460ff1916600117905591505092915050565b60008054604051632151974960e01b815282916001600160a01b0316906321519749906101e0908890889088906004016104b4565b6020604051808303816000875af11580156101ff573d6000803e3d6000fd5b505050506040513d601f19601f820116820180604052508101906102239190610497565b6001600160a01b0381166000908152600260205260409020805460ff191660011790559150509392505050565b6001600160a01b038116811461026557600080fd5b50565b60006020828403121561027a57600080fd5b813561028581610250565b9392505050565b634e487b7160e01b600052604160045260246000fd5b600082601f8301126102b357600080fd5b813567ffffffffffffffff808211156102ce576102ce61028c565b604051601f8301601f19908116603f011681019082821181831017156102f6576102f661028c565b8160405283815286602085880101111561030f57600080fd5b836020870160208301376000602085830101528094505050505092915050565b6000806040838503121561034257600080fd5b823567ffffffffffffffff81111561035957600080fd5b610365858286016102a2565b925050602083013561037681610250565b809150509250929050565b6000806040838503121561039457600080fd5b823561039f81610250565b9150602083013561037681610250565b6000806000606084860312156103c457600080fd5b833567ffffffffffffffff808211156103dc57600080fd5b6103e8878388016102a2565b945060208601359150808211156103fe57600080fd5b5061040b868287016102a2565b925050604084013561041c81610250565b809150509250925092565b6000815180845260005b8181101561044d57602081850181015186830182015201610431565b506000602082860101526020601f19601f83011685010191505092915050565b6040815260006104806040830185610427565b905060018060a01b03831660208301529392505050565b6000602082840312156104a957600080fd5b815161028581610250565b6060815260006104c76060830186610427565b82810360208401526104d98186610427565b91505060018060a01b038316604083015294935050505056fea26469706673582212208e0b243c2ab315e3089bfe7eaa7fd7c159a7a930ec83333b4729d93f221bd5e164736f6c63430008100033",
  "linkReferences": {},
  "deployedLinkReferences": {}
}