{
  "_format": "hh-sol-artifact-1",
  "contractName": "Marketplace",
  "sourceName": "contracts/Marketplace.sol",
  "abi": [
    {
      "inputs": [
        {
          "internalType": "address",
          "name": "_paymentTokenAddress",
          "type": "address"
        }
      ],
      "stateMutability": "nonpayable",
      "type": "constructor"
    },
    {
      "anonymous": false,
      "inputs": [
        {
          "indexed": true,
          "internalType": "address",
          "name": "previousOwner",
          "type": "address"
        },
        {
          "indexed": true,
          "internalType": "address",
          "name": "newOwner",
          "type": "address"
        }
      ],
      "name": "OwnershipTransferred",
      "type": "event"
    },
    {
      "anonymous": false,
      "inputs": [
        {
          "indexed": true,
          "internalType": "address",
          "name": "contractAddress",
          "type": "address"
        },
        {
          "indexed": true,
          "internalType": "address",
          "name": "recipient",
          "type": "address"
        },
        {
          "indexed": false,
          "internalType": "uint256",
          "name": "feeFraction",
          "type": "uint256"
        }
      ],
      "name": "SetRoyalty",
      "type": "event"
    },
    {
      "anonymous": false,
      "inputs": [
        {
          "indexed": true,
          "internalType": "address",
          "name": "contractAddress",
          "type": "address"
        },
        {
          "indexed": true,
          "internalType": "uint256",
          "name": "tokenId",
          "type": "uint256"
        },
        {
          "indexed": true,
          "internalType": "address",
          "name": "seller",
          "type": "address"
        },
        {
          "components": [
            {
              "internalType": "uint256",
              "name": "tokenId",
              "type": "uint256"
            },
            {
              "internalType": "uint256",
              "name": "value",
              "type": "uint256"
            },
            {
              "internalType": "address",
              "name": "bidder",
              "type": "address"
            },
            {
              "internalType": "uint256",
              "name": "nftCount",
              "type": "uint256"
            },
            {
              "internalType": "uint256",
              "name": "tokenType",
              "type": "uint256"
            },
            {
              "internalType": "uint256",
              "name": "expireTimestamp",
              "type": "uint256"
            },
            {
              "internalType": "uint256",
              "name": "paymentOption",
              "type": "uint256"
            }
          ],
          "indexed": false,
          "internalType": "struct IMarketplace.Bid",
          "name": "bid",
          "type": "tuple"
        },
        {
          "indexed": false,
          "internalType": "uint256",
          "name": "serviceFee",
          "type": "uint256"
        },
        {
          "indexed": false,
          "internalType": "uint256",
          "name": "royaltyFee",
          "type": "uint256"
        }
      ],
      "name": "TokenBidAccepted",
      "type": "event"
    },
    {
      "anonymous": false,
      "inputs": [
        {
          "indexed": true,
          "internalType": "address",
          "name": "contractAddress",
          "type": "address"
        },
        {
          "indexed": true,
          "internalType": "uint256",
          "name": "tokenId",
          "type": "uint256"
        },
        {
          "components": [
            {
              "internalType": "uint256",
              "name": "tokenId",
              "type": "uint256"
            },
            {
              "internalType": "uint256",
              "name": "value",
              "type": "uint256"
            },
            {
              "internalType": "address",
              "name": "bidder",
              "type": "address"
            },
            {
              "internalType": "uint256",
              "name": "nftCount",
              "type": "uint256"
            },
            {
              "internalType": "uint256",
              "name": "tokenType",
              "type": "uint256"
            },
            {
              "internalType": "uint256",
              "name": "expireTimestamp",
              "type": "uint256"
            },
            {
              "internalType": "uint256",
              "name": "paymentOption",
              "type": "uint256"
            }
          ],
          "indexed": false,
          "internalType": "struct IMarketplace.Bid",
          "name": "bid",
          "type": "tuple"
        }
      ],
      "name": "TokenBidEntered",
      "type": "event"
    },
    {
      "anonymous": false,
      "inputs": [
        {
          "indexed": true,
          "internalType": "address",
          "name": "contractAddress",
          "type": "address"
        },
        {
          "indexed": true,
          "internalType": "uint256",
          "name": "tokenId",
          "type": "uint256"
        },
        {
          "components": [
            {
              "internalType": "uint256",
              "name": "tokenId",
              "type": "uint256"
            },
            {
              "internalType": "uint256",
              "name": "value",
              "type": "uint256"
            },
            {
              "internalType": "address",
              "name": "bidder",
              "type": "address"
            },
            {
              "internalType": "uint256",
              "name": "nftCount",
              "type": "uint256"
            },
            {
              "internalType": "uint256",
              "name": "tokenType",
              "type": "uint256"
            },
            {
              "internalType": "uint256",
              "name": "expireTimestamp",
              "type": "uint256"
            },
            {
              "internalType": "uint256",
              "name": "paymentOption",
              "type": "uint256"
            }
          ],
          "indexed": false,
          "internalType": "struct IMarketplace.Bid",
          "name": "bid",
          "type": "tuple"
        }
      ],
      "name": "TokenBidWithdrawn",
      "type": "event"
    },
    {
      "anonymous": false,
      "inputs": [
        {
          "indexed": true,
          "internalType": "address",
          "name": "contractAddress",
          "type": "address"
        },
        {
          "indexed": true,
          "internalType": "uint256",
          "name": "tokenId",
          "type": "uint256"
        },
        {
          "indexed": true,
          "internalType": "address",
          "name": "buyer",
          "type": "address"
        },
        {
          "components": [
            {
              "internalType": "uint256",
              "name": "tokenId",
              "type": "uint256"
            },
            {
              "internalType": "uint256",
              "name": "value",
              "type": "uint256"
            },
            {
              "internalType": "address",
              "name": "seller",
              "type": "address"
            },
            {
              "internalType": "uint256",
              "name": "nftCount",
              "type": "uint256"
            },
            {
              "internalType": "uint256",
              "name": "tokenType",
              "type": "uint256"
            },
            {
              "internalType": "uint256",
              "name": "expireTimestamp",
              "type": "uint256"
            }
          ],
          "indexed": false,
          "internalType": "struct IMarketplace.Listing",
          "name": "listing",
          "type": "tuple"
        },
        {
          "indexed": false,
          "internalType": "uint256",
          "name": "serviceFee",
          "type": "uint256"
        },
        {
          "indexed": false,
          "internalType": "uint256",
          "name": "royaltyFee",
          "type": "uint256"
        }
      ],
      "name": "TokenBought",
      "type": "event"
    },
    {
      "anonymous": false,
      "inputs": [
        {
          "indexed": true,
          "internalType": "address",
          "name": "contractAddress",
          "type": "address"
        },
        {
          "indexed": true,
          "internalType": "uint256",
          "name": "tokenId",
          "type": "uint256"
        },
        {
          "components": [
            {
              "internalType": "uint256",
              "name": "tokenId",
              "type": "uint256"
            },
            {
              "internalType": "uint256",
              "name": "value",
              "type": "uint256"
            },
            {
              "internalType": "address",
              "name": "seller",
              "type": "address"
            },
            {
              "internalType": "uint256",
              "name": "nftCount",
              "type": "uint256"
            },
            {
              "internalType": "uint256",
              "name": "tokenType",
              "type": "uint256"
            },
            {
              "internalType": "uint256",
              "name": "expireTimestamp",
              "type": "uint256"
            }
          ],
          "indexed": false,
          "internalType": "struct IMarketplace.Listing",
          "name": "listing",
          "type": "tuple"
        }
      ],
      "name": "TokenDelisted",
      "type": "event"
    },
    {
      "anonymous": false,
      "inputs": [
        {
          "indexed": true,
          "internalType": "address",
          "name": "contractAddress",
          "type": "address"
        },
        {
          "indexed": true,
          "internalType": "uint256",
          "name": "tokenId",
          "type": "uint256"
        },
        {
          "components": [
            {
              "internalType": "uint256",
              "name": "tokenId",
              "type": "uint256"
            },
            {
              "internalType": "uint256",
              "name": "value",
              "type": "uint256"
            },
            {
              "internalType": "address",
              "name": "seller",
              "type": "address"
            },
            {
              "internalType": "uint256",
              "name": "nftCount",
              "type": "uint256"
            },
            {
              "internalType": "uint256",
              "name": "tokenType",
              "type": "uint256"
            },
            {
              "internalType": "uint256",
              "name": "expireTimestamp",
              "type": "uint256"
            }
          ],
          "indexed": false,
          "internalType": "struct IMarketplace.Listing",
          "name": "listing",
          "type": "tuple"
        }
      ],
      "name": "TokenListed",
      "type": "event"
    },
    {
      "inputs": [
        {
          "internalType": "address",
          "name": "contractAddress",
          "type": "address"
        },
        {
          "internalType": "uint256",
          "name": "tokenId",
          "type": "uint256"
        },
        {
          "internalType": "address",
          "name": "bidder",
          "type": "address"
        },
        {
          "internalType": "uint256",
          "name": "tokenType",
          "type": "uint256"
        },
        {
          "internalType": "uint256",
          "name": "nftAmount",
          "type": "uint256"
        },
        {
          "internalType": "uint256",
          "name": "paymentTokenType",
          "type": "uint256"
        },
        {
          "internalType": "uint256",
          "name": "value",
          "type": "uint256"
        }
      ],
      "name": "acceptBidForToken",
      "outputs": [],
      "stateMutability": "payable",
      "type": "function"
    },
    {
      "inputs": [],
      "name": "actionTimeOutRangeMax",
      "outputs": [
        {
          "internalType": "uint256",
          "name": "",
          "type": "uint256"
        }
      ],
      "stateMutability": "view",
      "type": "function"
    },
    {
      "inputs": [],
      "name": "actionTimeOutRangeMin",
      "outputs": [
        {
          "internalType": "uint256",
          "name": "",
          "type": "uint256"
        }
      ],
      "stateMutability": "view",
      "type": "function"
    },
    {
      "inputs": [],
      "name": "auctionEnd",
      "outputs": [],
      "stateMutability": "payable",
      "type": "function"
    },
    {
      "inputs": [
        {
          "internalType": "address",
          "name": "contractAddress",
          "type": "address"
        },
        {
          "internalType": "uint256",
          "name": "tokenId",
          "type": "uint256"
        },
        {
          "internalType": "uint256",
          "name": "tokenAmount",
          "type": "uint256"
        },
        {
          "internalType": "uint256",
          "name": "tokenType",
          "type": "uint256"
        },
        {
          "internalType": "uint256",
          "name": "paymentTokenType",
          "type": "uint256"
        }
      ],
      "name": "buyToken",
      "outputs": [],
      "stateMutability": "payable",
      "type": "function"
    },
    {
      "inputs": [
        {
          "internalType": "bool",
          "name": "enabled",
          "type": "bool"
        }
      ],
      "name": "changeMarketplaceStatus",
      "outputs": [],
      "stateMutability": "nonpayable",
      "type": "function"
    },
    {
      "inputs": [
        {
          "internalType": "uint256",
          "name": "timeInSec",
          "type": "uint256"
        }
      ],
      "name": "changeMaxActionTimeLimit",
      "outputs": [],
      "stateMutability": "nonpayable",
      "type": "function"
    },
    {
      "inputs": [
        {
          "internalType": "uint256",
          "name": "timeInSec",
          "type": "uint256"
        }
      ],
      "name": "changeMinActionTimeLimit",
      "outputs": [],
      "stateMutability": "nonpayable",
      "type": "function"
    },
    {
      "inputs": [
        {
          "internalType": "uint8",
          "name": "serviceFeeFraction_",
          "type": "uint8"
        }
      ],
      "name": "changeSeriveFee",
      "outputs": [],
      "stateMutability": "nonpayable",
      "type": "function"
    },
    {
      "inputs": [],
      "name": "defaultRoyaltyFraction",
      "outputs": [
        {
          "internalType": "uint256",
          "name": "",
          "type": "uint256"
        }
      ],
      "stateMutability": "view",
      "type": "function"
    },
    {
      "inputs": [
        {
          "internalType": "address",
          "name": "contractAddress",
          "type": "address"
        },
        {
          "internalType": "uint256",
          "name": "tokenId",
          "type": "uint256"
        }
      ],
      "name": "delistToken",
      "outputs": [],
      "stateMutability": "nonpayable",
      "type": "function"
    },
    {
      "inputs": [
        {
          "internalType": "address",
          "name": "contractAddress",
          "type": "address"
        },
        {
          "internalType": "uint256",
          "name": "tokenId",
          "type": "uint256"
        },
        {
          "internalType": "uint256",
          "name": "value",
          "type": "uint256"
        },
        {
          "internalType": "uint256",
          "name": "expireTimestamp",
          "type": "uint256"
        },
        {
          "internalType": "uint256",
          "name": "nftCount",
          "type": "uint256"
        },
        {
          "internalType": "uint256",
          "name": "tokenType",
          "type": "uint256"
        },
        {
          "internalType": "uint256",
          "name": "paymentOption",
          "type": "uint256"
        }
      ],
      "name": "enterBidForToken",
      "outputs": [],
      "stateMutability": "payable",
      "type": "function"
    },
    {
      "inputs": [
        {
          "internalType": "address",
          "name": "contractAddress",
          "type": "address"
        },
        {
          "internalType": "address",
          "name": "bidder",
          "type": "address"
        },
        {
          "internalType": "uint256",
          "name": "from",
          "type": "uint256"
        },
        {
          "internalType": "uint256",
          "name": "size",
          "type": "uint256"
        }
      ],
      "name": "getBidderBids",
      "outputs": [
        {
          "components": [
            {
              "internalType": "uint256",
              "name": "tokenId",
              "type": "uint256"
            },
            {
              "internalType": "uint256",
              "name": "value",
              "type": "uint256"
            },
            {
              "internalType": "address",
              "name": "bidder",
              "type": "address"
            },
            {
              "internalType": "uint256",
              "name": "nftCount",
              "type": "uint256"
            },
            {
              "internalType": "uint256",
              "name": "tokenType",
              "type": "uint256"
            },
            {
              "internalType": "uint256",
              "name": "expireTimestamp",
              "type": "uint256"
            },
            {
              "internalType": "uint256",
              "name": "paymentOption",
              "type": "uint256"
            }
          ],
          "internalType": "struct IMarketplace.Bid[]",
          "name": "bidderBids",
          "type": "tuple[]"
        }
      ],
      "stateMutability": "view",
      "type": "function"
    },
    {
      "inputs": [
        {
          "internalType": "address",
          "name": "contractAddress",
          "type": "address"
        },
        {
          "internalType": "uint256",
          "name": "tokenId",
          "type": "uint256"
        },
        {
          "internalType": "address",
          "name": "bidder",
          "type": "address"
        }
      ],
      "name": "getBidderTokenBid",
      "outputs": [
        {
          "components": [
            {
              "internalType": "uint256",
              "name": "tokenId",
              "type": "uint256"
            },
            {
              "internalType": "uint256",
              "name": "value",
              "type": "uint256"
            },
            {
              "internalType": "address",
              "name": "bidder",
              "type": "address"
            },
            {
              "internalType": "uint256",
              "name": "nftCount",
              "type": "uint256"
            },
            {
              "internalType": "uint256",
              "name": "tokenType",
              "type": "uint256"
            },
            {
              "internalType": "uint256",
              "name": "expireTimestamp",
              "type": "uint256"
            },
            {
              "internalType": "uint256",
              "name": "paymentOption",
              "type": "uint256"
            }
          ],
          "internalType": "struct IMarketplace.Bid",
          "name": "validBid",
          "type": "tuple"
        }
      ],
      "stateMutability": "view",
      "type": "function"
    },
    {
      "inputs": [
        {
          "internalType": "address",
          "name": "contractAddress",
          "type": "address"
        },
        {
          "internalType": "uint256",
          "name": "tokenId",
          "type": "uint256"
        }
      ],
      "name": "getTokenBids",
      "outputs": [
        {
          "components": [
            {
              "internalType": "uint256",
              "name": "tokenId",
              "type": "uint256"
            },
            {
              "internalType": "uint256",
              "name": "value",
              "type": "uint256"
            },
            {
              "internalType": "address",
              "name": "bidder",
              "type": "address"
            },
            {
              "internalType": "uint256",
              "name": "nftCount",
              "type": "uint256"
            },
            {
              "internalType": "uint256",
              "name": "tokenType",
              "type": "uint256"
            },
            {
              "internalType": "uint256",
              "name": "expireTimestamp",
              "type": "uint256"
            },
            {
              "internalType": "uint256",
              "name": "paymentOption",
              "type": "uint256"
            }
          ],
          "internalType": "struct IMarketplace.Bid[]",
          "name": "bids",
          "type": "tuple[]"
        }
      ],
      "stateMutability": "view",
      "type": "function"
    },
    {
      "inputs": [
        {
          "internalType": "address",
          "name": "contractAddress",
          "type": "address"
        },
        {
          "internalType": "uint256",
          "name": "tokenId",
          "type": "uint256"
        }
      ],
      "name": "getTokenHighestBid",
      "outputs": [
        {
          "components": [
            {
              "internalType": "uint256",
              "name": "tokenId",
              "type": "uint256"
            },
            {
              "internalType": "uint256",
              "name": "value",
              "type": "uint256"
            },
            {
              "internalType": "address",
              "name": "bidder",
              "type": "address"
            },
            {
              "internalType": "uint256",
              "name": "nftCount",
              "type": "uint256"
            },
            {
              "internalType": "uint256",
              "name": "tokenType",
              "type": "uint256"
            },
            {
              "internalType": "uint256",
              "name": "expireTimestamp",
              "type": "uint256"
            },
            {
              "internalType": "uint256",
              "name": "paymentOption",
              "type": "uint256"
            }
          ],
          "internalType": "struct IMarketplace.Bid",
          "name": "highestBid",
          "type": "tuple"
        }
      ],
      "stateMutability": "view",
      "type": "function"
    },
    {
      "inputs": [
        {
          "internalType": "address",
          "name": "contractAddress",
          "type": "address"
        },
        {
          "internalType": "uint256",
          "name": "from",
          "type": "uint256"
        },
        {
          "internalType": "uint256",
          "name": "size",
          "type": "uint256"
        }
      ],
      "name": "getTokenHighestBids",
      "outputs": [
        {
          "components": [
            {
              "internalType": "uint256",
              "name": "tokenId",
              "type": "uint256"
            },
            {
              "internalType": "uint256",
              "name": "value",
              "type": "uint256"
            },
            {
              "internalType": "address",
              "name": "bidder",
              "type": "address"
            },
            {
              "internalType": "uint256",
              "name": "nftCount",
              "type": "uint256"
            },
            {
              "internalType": "uint256",
              "name": "tokenType",
              "type": "uint256"
            },
            {
              "internalType": "uint256",
              "name": "expireTimestamp",
              "type": "uint256"
            },
            {
              "internalType": "uint256",
              "name": "paymentOption",
              "type": "uint256"
            }
          ],
          "internalType": "struct IMarketplace.Bid[]",
          "name": "highestBids",
          "type": "tuple[]"
        }
      ],
      "stateMutability": "view",
      "type": "function"
    },
    {
      "inputs": [
        {
          "internalType": "address",
          "name": "contractAddress",
          "type": "address"
        },
        {
          "internalType": "uint256",
          "name": "tokenId",
          "type": "uint256"
        }
      ],
      "name": "getTokenListing",
      "outputs": [
        {
          "components": [
            {
              "internalType": "uint256",
              "name": "tokenId",
              "type": "uint256"
            },
            {
              "internalType": "uint256",
              "name": "value",
              "type": "uint256"
            },
            {
              "internalType": "address",
              "name": "seller",
              "type": "address"
            },
            {
              "internalType": "uint256",
              "name": "nftCount",
              "type": "uint256"
            },
            {
              "internalType": "uint256",
              "name": "tokenType",
              "type": "uint256"
            },
            {
              "internalType": "uint256",
              "name": "expireTimestamp",
              "type": "uint256"
            }
          ],
          "internalType": "struct IMarketplace.Listing",
          "name": "validListing",
          "type": "tuple"
        }
      ],
      "stateMutability": "view",
      "type": "function"
    },
    {
      "inputs": [
        {
          "internalType": "uint256",
          "name": "_type",
          "type": "uint256"
        }
      ],
      "name": "getTokensByType",
      "outputs": [
        {
          "internalType": "contract IERC20",
          "name": "_token",
          "type": "address"
        }
      ],
      "stateMutability": "view",
      "type": "function"
    },
    {
      "inputs": [
        {
          "internalType": "address",
          "name": "contractAddress",
          "type": "address"
        },
        {
          "internalType": "uint256",
          "name": "tokenId",
          "type": "uint256"
        },
        {
          "internalType": "uint256",
          "name": "value",
          "type": "uint256"
        },
        {
          "internalType": "uint256",
          "name": "expireTimestamp",
          "type": "uint256"
        },
        {
          "internalType": "uint256",
          "name": "nftAmount",
          "type": "uint256"
        },
        {
          "internalType": "uint8",
          "name": "tokenType",
          "type": "uint8"
        }
      ],
      "name": "listToken",
      "outputs": [],
      "stateMutability": "nonpayable",
      "type": "function"
    },
    {
      "inputs": [
        {
          "internalType": "address",
          "name": "contractAddress",
          "type": "address"
        }
      ],
      "name": "numTokenWithBids",
      "outputs": [
        {
          "internalType": "uint256",
          "name": "",
          "type": "uint256"
        }
      ],
      "stateMutability": "view",
      "type": "function"
    },
    {
      "inputs": [],
      "name": "owner",
      "outputs": [
        {
          "internalType": "address",
          "name": "",
          "type": "address"
        }
      ],
      "stateMutability": "view",
      "type": "function"
    },
    {
      "inputs": [],
      "name": "paymentToken",
      "outputs": [
        {
          "internalType": "address",
          "name": "",
          "type": "address"
        }
      ],
      "stateMutability": "view",
      "type": "function"
    },
    {
      "inputs": [],
      "name": "renounceOwnership",
      "outputs": [],
      "stateMutability": "nonpayable",
      "type": "function"
    },
    {
      "inputs": [
        {
          "internalType": "address",
          "name": "contractAddress",
          "type": "address"
        }
      ],
      "name": "royalty",
      "outputs": [
        {
          "components": [
            {
              "internalType": "address",
              "name": "recipient",
              "type": "address"
            },
            {
              "internalType": "uint256",
              "name": "feeFraction",
              "type": "uint256"
            },
            {
              "internalType": "address",
              "name": "setBy",
              "type": "address"
            }
          ],
          "internalType": "struct IRoyalty.CollectionRoyalty",
          "name": "",
          "type": "tuple"
        }
      ],
      "stateMutability": "view",
      "type": "function"
    },
    {
      "inputs": [],
      "name": "royaltyUpperLimit",
      "outputs": [
        {
          "internalType": "uint256",
          "name": "",
          "type": "uint256"
        }
      ],
      "stateMutability": "view",
      "type": "function"
    },
    {
      "inputs": [],
      "name": "serviceFee",
      "outputs": [
        {
          "internalType": "uint8",
          "name": "",
          "type": "uint8"
        }
      ],
      "stateMutability": "view",
      "type": "function"
    },
    {
      "inputs": [
        {
          "internalType": "address",
          "name": "contractAddress",
          "type": "address"
        },
        {
          "internalType": "address",
          "name": "newRecipient",
          "type": "address"
        },
        {
          "internalType": "uint256",
          "name": "feeFraction",
          "type": "uint256"
        }
      ],
      "name": "setRoyalty",
      "outputs": [],
      "stateMutability": "nonpayable",
      "type": "function"
    },
    {
      "inputs": [
        {
          "internalType": "address",
          "name": "contractAddress",
          "type": "address"
        },
        {
          "internalType": "address",
          "name": "newRecipient",
          "type": "address"
        },
        {
          "internalType": "uint256",
          "name": "feeFraction",
          "type": "uint256"
        }
      ],
      "name": "setRoyaltyForCollection",
      "outputs": [],
      "stateMutability": "nonpayable",
      "type": "function"
    },
    {
      "inputs": [
        {
          "internalType": "address",
          "name": "newOwner",
          "type": "address"
        }
      ],
      "name": "transferOwnership",
      "outputs": [],
      "stateMutability": "nonpayable",
      "type": "function"
    },
    {
      "inputs": [
        {
          "internalType": "uint256",
          "name": "_newUpperLimit",
          "type": "uint256"
        }
      ],
      "name": "updateRoyaltyUpperLimit",
      "outputs": [],
      "stateMutability": "nonpayable",
      "type": "function"
    },
    {
      "inputs": [
        {
          "internalType": "address",
          "name": "contractAddress",
          "type": "address"
        },
        {
          "internalType": "uint256",
          "name": "tokenId",
          "type": "uint256"
        }
      ],
      "name": "withdrawBidForToken",
      "outputs": [],
      "stateMutability": "nonpayable",
      "type": "function"
    }
  ],
  "bytecode": "0x60a0604052601460015560506002556005805461ffff19166114011790556107086006556301e133806007553480156200003857600080fd5b5060405162003a2638038062003a268339810160408190526200005b91620000cd565b62000066336200007d565b60016004556001600160a01b0316608052620000ff565b600080546001600160a01b038381166001600160a01b0319831681178455604051919092169283917f8be0079c531659141344cd1fd0a4f28419497f9722a3daafe3b4186f6b6457e09190a35050565b600060208284031215620000e057600080fd5b81516001600160a01b0381168114620000f857600080fd5b9392505050565b6080516138d362000153600039600081816102c401528181610d3b01528181610d8701528181610ddf0152818161127d0152818161174d015281816117c401528181612565015261260501526138d36000f3fe6080604052600436106101e35760003560e01c80637a4e5cd211610102578063b6be53ba11610095578063ee8ef34d11610064578063ee8ef34d14610599578063f2fde38b146105af578063f8ad6f62146105cf578063feb88406146105ef57600080fd5b8063b6be53ba14610519578063cdea490d14610539578063cf6ac95314610559578063eb635ab81461057957600080fd5b806390bc4e37116100d157806390bc4e371461049957806396f97164146104b9578063a3c0b5f0146104e6578063b28f98711461050657600080fd5b80637a4e5cd2146103ee578063861b69d6146104015780638abdf5aa146104515780638da5cb5b1461047b57600080fd5b8063453dfc501161017a5780636151e62e116101495780636151e62e1461038357806366c1e8bf146103a35780636d0042b8146103c3578063715018a6146103d957600080fd5b8063453dfc501461031b578063528019651461033057806355c338aa146103435780635dc28a721461036357600080fd5b80632a24f46c116101b65780632a24f46c146102805780632c20d1b4146102885780633013ce29146102b557806333549d3d146102fc57600080fd5b80630609d095146101e857806319d334cb1461020a5780631f77a8201461022a5780632426fc2414610260575b600080fd5b3480156101f457600080fd5b506102086102033660046130e8565b61060f565b005b34801561021657600080fd5b50610208610225366004613114565b61074c565b34801561023657600080fd5b5061024a6102453660046130e8565b610894565b604051610257919061319f565b60405180910390f35b34801561026c57600080fd5b5061020861027b3660046131ad565b610a05565b610208610a12565b34801561029457600080fd5b506102a86102a33660046131c6565b610a26565b60405161025791906131fb565b3480156102c157600080fd5b507f00000000000000000000000000000000000000000000000000000000000000005b6040516001600160a01b039091168152602001610257565b34801561030857600080fd5b506006545b604051908152602001610257565b34801561032757600080fd5b5060075461030d565b61020861033e366004613249565b610b35565b34801561034f57600080fd5b5061020861035e366004613114565b610f61565b34801561036f57600080fd5b5061020861037e3660046132bf565b61100a565b34801561038f57600080fd5b506102e461039e3660046131ad565b611214565b3480156103af57600080fd5b506102a86103be3660046130e8565b6112a6565b3480156103cf57600080fd5b5061030d60015481565b3480156103e557600080fd5b50610208611433565b6102086103fc366004613319565b611445565b34801561040d57600080fd5b5061042161041c36600461335d565b611947565b6040805182516001600160a01b039081168252602080850151908301529282015190921690820152606001610257565b34801561045d57600080fd5b50600554610100900460ff1660405160ff9091168152602001610257565b34801561048757600080fd5b506000546001600160a01b03166102e4565b3480156104a557600080fd5b5061024a6104b436600461337a565b611a38565b3480156104c557600080fd5b506104d96104d43660046130e8565b611ad9565b60405161025791906133fc565b3480156104f257600080fd5b506102086105013660046131ad565b611ba2565b61020861051436600461340a565b611baf565b34801561052557600080fd5b5061020861053436600461346d565b611fc1565b34801561054557600080fd5b506102086105543660046131ad565b611fdc565b34801561056557600080fd5b506102a861057436600461348a565b611fe9565b34801561058557600080fd5b5061030d61059436600461335d565b6120ff565b3480156105a557600080fd5b5061030d60025481565b3480156105bb57600080fd5b506102086105ca36600461335d565b612129565b3480156105db57600080fd5b506102086105ea3660046134d0565b6121a2565b3480156105fb57600080fd5b5061020861060a3660046130e8565b61222e565b6001600160a01b03808316600090815260086020908152604080832085845260059081018352818420338086526002918201855294839020835160e0810185528154815260018201549581019590955290810154909516918301829052600385015460608401526004850154608084015284015460a083015260069093015460c082015291146106fa5760405162461bcd60e51b815260206004820152602b60248201527f54686973206164647265737320646f65736e2774206861766520626964206f6e60448201526a103a3434b9903a37b5b2b760a91b60648201526084015b60405180910390fd5b81836001600160a01b03167fbedb4c1f4e6074aa37e86db18ac249a3a394f48b7d9766d0ab915724ee3e92b983604051610734919061319f565b60405180910390a3610747838333612364565b505050565b61075461247a565b6002548111156107765760405162461bcd60e51b81526004016106f1906134eb565b600061078184611947565b604001516001600160a01b0316146107ec5760405162461bcd60e51b815260206004820152602860248201527f436f6c6c656374696f6e20726f79616c747920726563697069656e7420616c726044820152671958591e481cd95d60c21b60648201526084016106f1565b604080516060810182526001600160a01b038085168083526020808401868152338587019081528985166000818152600390945292879020955186549086166001600160a01b03199182161787559151600187015551600290950180549590941694169390931790915591517fb6b61d78ac5372b51940cf3b322ea21839c456cade69acdf1b9fb9a6f79d6ff7906108879085815260200190565b60405180910390a3505050565b61089c61308d565b506040805160e08101825282815260006020808301829052828401829052606083018290526080830182905260a08301829052600160c08401526001600160a01b0386168252600881528382208583526005019052918220909190610900906124d4565b905060005b818110156109fd576001600160a01b0385166000908152600860209081526040808320878452600501909152812061093d90836124de565b6001600160a01b0380881660009081526008602090815260408083208a84526005908101835281842085871685526002908101845293829020825160e08101845281548152600182015494810194909452938401549094169082015260038201546060820152600482015460808201529181015460a08301526006015460c08201529091506109cc87826124f1565b80156109df575084602001518160200151115b156109e8578094505b505080806109f590613557565b915050610905565b505092915050565b610a0d61247a565b600655565b610a1a6126a2565b610a246001600455565b565b60606000610a33856120ff565b90508084108015610a445750600083115b15610b2d578281610a558287613570565b1115610a6857610a658583613583565b90505b8067ffffffffffffffff811115610a8157610a81613596565b604051908082528060200260200182016040528015610aba57816020015b610aa761308d565b815260200190600190039081610a9f5790505b50925060005b81811015610b2a57610afa87610245610ad98985613570565b6001600160a01b038b166000908152600860205260409020600301906124de565b848281518110610b0c57610b0c6135ac565b60200260200101819052508080610b2290613557565b915050610ac0565b50505b509392505050565b610b3d6126a2565b610b488733866126fb565b610bb25760405162461bcd60e51b815260206004820152603560248201527f54686520746f6b656e206973206e6f7420617070726f76656420746f207472616044820152741b9cd9995c88189e481d1a194818dbdb9d1c9858dd605a1b60648201526084016106f1565b6000610bbf888888611a38565b805190915087148015610bd55750818160200151145b8015610bf65750856001600160a01b031681604001516001600160a01b0316145b610c515760405162461bcd60e51b815260206004820152602660248201527f5468697320746f6b656e20646f65736e277420686176652061206d61746368696044820152651b99c8189a5960d21b60648201526084016106f1565b6000610c5c89611947565b600001519050600080610c738b85602001516127b8565b9150915085600203610d0d578360200151341015610ca35760405162461bcd60e51b81526004016106f1906135c2565b6040840151610cc69082610cb78534613583565b610cc19190613583565b61283d565b610ce1610cdb6000546001600160a01b031690565b8361283d565b6001600160a01b03831615801590610cf95750600081115b15610d0857610d08838261283d565b610f4a565b610d6384604001513383858860200151610d279190613583565b610d319190613583565b6001600160a01b037f000000000000000000000000000000000000000000000000000000000000000016929190612956565b610daf8460400151610d7d6000546001600160a01b031690565b6001600160a01b037f000000000000000000000000000000000000000000000000000000000000000016919085612956565b6001600160a01b03831615801590610dc75750600081115b15610e07576040840151610e07906001600160a01b037f000000000000000000000000000000000000000000000000000000000000000016908584612956565b87600103610e79576040808501519051632142170760e11b81526001600160a01b038d16916342842e0e91610e429133918f90600401613604565b600060405180830381600087803b158015610e5c57600080fd5b505af1158015610e70573d6000803e3d6000fd5b50505050610ee1565b6040808501519051637921219560e11b81526001600160a01b038d169163f242432a91610eae9133918f908d90600401613628565b600060405180830381600087803b158015610ec857600080fd5b505af1158015610edc573d6000803e3d6000fd5b505050505b336001600160a01b03168a8c6001600160a01b03167feb7a83e956ddce547aa6303671a1fd94eb8f7fe7f317c03dc1657d2d7f373caa878686604051610f299392919061366d565b60405180910390a4610f3b8b8b6129ae565b610f4a8b8b8660400151612364565b50505050610f586001600455565b50505050505050565b600254811115610f835760405162461bcd60e51b81526004016106f1906134eb565b610f8c83611947565b516001600160a01b031633146107ec5760405162461bcd60e51b815260206004820152603760248201527f4f6e6c792045524337323120726f79616c747920726563697069656e7420697360448201527f20616c6c6f77656420746f2073657420526f79616c747900000000000000000060648201526084016106f1565b60055460ff1661105c5760405162461bcd60e51b815260206004820152601f60248201527f4c697374696e6720616e642062696420617265206e6f7420656e61626c65640060448201526064016106f1565b600654839061106b4283613583565b10156110895760405162461bcd60e51b81526004016106f19061368e565b6007546110964283613583565b11156110b45760405162461bcd60e51b81526004016106f1906136d2565b60006040518060c00160405280888152602001878152602001336001600160a01b031681526020018581526020018460ff16815260200186815250905080600860008a6001600160a01b03166001600160a01b031681526020019081526020016000206002016000898152602001908152602001600020600082015181600001556020820151816001015560408201518160020160006101000a8154816001600160a01b0302191690836001600160a01b03160217905550606082015181600301556080820151816004015560a082015181600501559050506111c787600860008b6001600160a01b03166001600160a01b03168152602001908152602001600020600001612a3e90919063ffffffff16565b5086886001600160a01b03167fb2b0f1ec5cfcef29ee85821296b3a908b186c398343c1da82d2288c43d801d9f8360405161120291906133fc565b60405180910390a35050505050505050565b6000816002036112725760405162461bcd60e51b8152602060048201526024808201527f74797065203220697320666f722044656661756c7420706c6174666f726d205460448201526337b5b2b760e11b60648201526084016106f1565b816001036112a157507f0000000000000000000000000000000000000000000000000000000000000000919050565b919050565b6001600160a01b03821660009081526008602090815260408083208484526005019091528120606091906112d9906124d4565b90508067ffffffffffffffff8111156112f4576112f4613596565b60405190808252806020026020018201604052801561132d57816020015b61131a61308d565b8152602001906001900390816113125790505b50915060005b818110156109fd576001600160a01b0385166000908152600860209081526040808320878452600501909152812061136b90836124de565b6001600160a01b0380881660009081526008602090815260408083208a84526005908101835281842085871685526002908101845293829020825160e08101845281548152600182015494810194909452938401549094169082015260038201546060820152600482015460808201529181015460a08301526006015460c08201529091506113fa87826124f1565b1561141e5780858481518110611412576114126135ac565b60200260200101819052505b5050808061142b90613557565b915050611333565b61143b61247a565b610a246000612a4a565b61144d6126a2565b6001600160a01b0380861660009081526008602090815260408083208884526002908101835292819020815160c08101835281548152600182015493810193909352928301549093169281019290925260038101546060830152600481015460808301526005015460a08201526114c48682612a9a565b6115085760405162461bcd60e51b8152602060048201526015602482015274546f6b656e206973206e6f7420666f722073616c6560581b60448201526064016106f1565b6000806115198884602001516127b8565b91509150836002036116f25782602001513410156115495760405162461bcd60e51b81526004016106f1906135c2565b604083015161155d9082610cb78534613583565b611572610cdb6000546001600160a01b031690565b600061157d89611947565b5190506001600160a01b038116158015906115985750600082115b156115a7576115a7818361283d565b336001600160a01b0316888a6001600160a01b03167fb7d014c56c56a5dc44dc51f228368ee105a714dc6d74ae5af0d7613a35b2aa8e8787876040516115ef93929190613717565b60405180910390a48560010361166a576040808501519051632142170760e11b81526001600160a01b038b16916342842e0e91611633919033908d90600401613604565b600060405180830381600087803b15801561164d57600080fd5b505af1158015611661573d6000803e3d6000fd5b505050506116d7565b886001600160a01b031663f242432a8560400151338b88606001516040518563ffffffff1660e01b81526004016116a49493929190613628565b600060405180830381600087803b1580156116be57600080fd5b505af11580156116d2573d6000803e3d6000fd5b505050505b6116e189896129ae565b6116ec898933612364565b50611933565b6117356040518060400160405280601e81526020017f4c697374696e672056616c7565203d3d3d3d3d3d3d3d3d3d3d3d3d3d3d3e00008152508460200151612ace565b60408301516020840151611776916001600160a01b037f00000000000000000000000000000000000000000000000000000000000000001691339190612956565b61178c33610d7d6000546001600160a01b031690565b600061179789611947565b5190506001600160a01b038116158015906117b25750600082115b156117ec576117ec6001600160a01b037f000000000000000000000000000000000000000000000000000000000000000016338385612956565b336001600160a01b0316888a6001600160a01b03167fb7d014c56c56a5dc44dc51f228368ee105a714dc6d74ae5af0d7613a35b2aa8e87878760405161183493929190613717565b60405180910390a4856001036118af576040808501519051632142170760e11b81526001600160a01b038b16916342842e0e91611878919033908d90600401613604565b600060405180830381600087803b15801561189257600080fd5b505af11580156118a6573d6000803e3d6000fd5b5050505061191c565b886001600160a01b031663f242432a8560400151338b88606001516040518563ffffffff1660e01b81526004016118e99493929190613628565b600060405180830381600087803b15801561190357600080fd5b505af1158015611917573d6000803e3d6000fd5b505050505b61192689896129ae565b611931898933612364565b505b5050506119406001600455565b5050505050565b60408051606081018252600080825260208201819052918101919091526001600160a01b0382811660009081526003602052604090206002015416156119cd57506001600160a01b039081166000908152600360209081526040918290208251606081018452815485168152600182015492810192909252600201549092169082015290565b60006119d883612b13565b90506001600160a01b03811615611a1457604080516060810182526001600160a01b039092168252600154602083015260009082015292915050565b50506040805160608101825260008082526020820181905291810191909152919050565b611a4061308d565b6001600160a01b0380851660009081526008602090815260408083208784526005908101835281842087861685526002908101845293829020825160e08101845281548152600182015494810194909452938401549094169082015260038201546060820152600482015460808201529181015460a08301526006015460c0820152611acc85826124f1565b15610b2d57949350505050565b611b1b6040518060c00160405280600081526020016000815260200160006001600160a01b031681526020016000815260200160008152602001600081525090565b6001600160a01b0380841660009081526008602090815260408083208684526002908101835292819020815160c08101835281548152600182015493810193909352928301549093169281019290925260038101546060830152600481015460808301526005015460a0820152611b928482612a9a565b15611b9b578091505b5092915050565b611baa61247a565b600755565b60055460ff16611c015760405162461bcd60e51b815260206004820152601f60248201527f4c697374696e6720616e642062696420617265206e6f7420656e61626c65640060448201526064016106f1565b6006548490611c104283613583565b1015611c2e5760405162461bcd60e51b81526004016106f19061368e565b600754611c3b4283613583565b1115611c595760405162461bcd60e51b81526004016106f1906136d2565b81600203611e0e5760006040518060e00160405280898152602001888152602001336001600160a01b03168152602001868152602001858152602001878152602001848152509050611cab89826124f1565b611cea5760405162461bcd60e51b815260206004820152601060248201526f109a59081a5cc81b9bdd081d985b1a5960821b60448201526064016106f1565b6001600160a01b0389166000908152600860205260409020611d0f9060030189612a3e565b506001600160a01b03891660009081526008602090815260408083208b84526005019091529020611d409033612b7b565b506001600160a01b0389811660008181526008602090815260408083208d8452600590810183528184203385526002908101845293829020875181559287015160018401558682015193830180546001600160a01b0319169490961693909317909455606085015160038201556080850151600482015560a08501519181019190915560c084015160069091015590518991907f24f087509ca45f13de302be86e3db008c736115ad592ca49fdb327daa49f847a90611e0090859061319f565b60405180910390a350611fb7565b60006040518060e00160405280898152602001888152602001336001600160a01b03168152602001868152602001858152602001878152602001848152509050611e5889826124f1565b611e975760405162461bcd60e51b815260206004820152601060248201526f109a59081a5cc81b9bdd081d985b1a5960821b60448201526064016106f1565b6001600160a01b0389166000908152600860205260409020611ebc9060030189612a3e565b506001600160a01b03891660009081526008602090815260408083208b84526005019091529020611eed9033612b7b565b506001600160a01b0389811660008181526008602090815260408083208d8452600590810183528184203385526002908101845293829020875181559287015160018401558682015193830180546001600160a01b0319169490961693909317909455606085015160038201556080850151600482015560a08501519181019190915560c084015160069091015590518991907f24f087509ca45f13de302be86e3db008c736115ad592ca49fdb327daa49f847a90611fad90859061319f565b60405180910390a3505b5050505050505050565b611fc961247a565b6005805460ff1916911515919091179055565b611fe461247a565b600255565b60606000611ff6866120ff565b905080841080156120075750600083115b156120f65782816120188287613570565b111561202b576120288583613583565b90505b8067ffffffffffffffff81111561204457612044613596565b60405190808252806020026020018201604052801561207d57816020015b61206a61308d565b8152602001906001900390816120625790505b50925060005b818110156120f3576120c3886120bd61209c8985613570565b6001600160a01b038c166000908152600860205260409020600301906124de565b89611a38565b8482815181106120d5576120d56135ac565b602002602001018190525080806120eb90613557565b915050612083565b50505b50949350505050565b6001600160a01b0381166000908152600860205260408120612123906003016124d4565b92915050565b61213161247a565b6001600160a01b0381166121965760405162461bcd60e51b815260206004820152602660248201527f4f776e61626c653a206e6577206f776e657220697320746865207a65726f206160448201526564647265737360d01b60648201526084016106f1565b61219f81612a4a565b50565b6121aa61247a565b60198160ff1611156122125760405162461bcd60e51b815260206004820152602b60248201527f417474656d707420746f207365742070657263656e746167652068696768657260448201526a103a3430b71019171a929760a91b60648201526084016106f1565b6005805460ff9092166101000261ff0019909216919091179055565b6001600160a01b038281166000908152600860209081526040808320858452600290810190925290912001541633146122b45760405162461bcd60e51b815260206004820152602260248201527f4f6e6c7920746f6b656e2073656c6c65722063616e2064656c69737420746f6b60448201526132b760f11b60648201526084016106f1565b6001600160a01b03821660008181526008602090815260408083208584526002019091529081902090518392917f816eddcd06fe0e27a14975f0fa6ca175ea858df3a8f4b0a9aff734da679d3b4a9161234e9190815481526001820154602082015260028201546001600160a01b03166040820152600382015460608201526004820154608082015260059091015460a082015260c00190565b60405180910390a361236082826129ae565b5050565b6001600160a01b038316600090815260086020908152604080832085845260050190915290206123949082612b90565b15610747576001600160a01b03808416600090815260086020908152604080832086845260059081018084528285209587168552600280870185529285208581556001810186905592830180546001600160a01b03191690556003830185905560048301859055908201849055600690910183905591859052526124189082612bb2565b506001600160a01b03831660009081526008602090815260408083208584526005019091529020612448906124d4565b600003610747576001600160a01b03831660009081526008602052604090206124749060030183612bc7565b50505050565b6000546001600160a01b03163314610a245760405162461bcd60e51b815260206004820181905260248201527f4f776e61626c653a2063616c6c6572206973206e6f7420746865206f776e657260448201526064016106f1565b6000612123825490565b60006124ea8383612bd3565b9392505050565b60008160800151600214801561250b575060008260200151115b801561251a5750428260a00151115b1561252757506001612123565b816080015160011480156125d5575060208201516040808401519051636eb1769f60e11b81526001600160a01b0391821660048201523060248201527f00000000000000000000000000000000000000000000000000000000000000009091169063dd62ed3e90604401602060405180830381865afa1580156125ae573d6000803e3d6000fd5b505050506040513d601f19601f820116820180604052508101906125d29190613737565b10155b80156126755750602082015160408084015190516370a0823160e01b81526001600160a01b0391821660048201527f0000000000000000000000000000000000000000000000000000000000000000909116906370a0823190602401602060405180830381865afa15801561264e573d6000803e3d6000fd5b505050506040513d601f19601f820116820180604052508101906126729190613737565b10155b8015612685575060008260200151115b80156126945750428260a00151115b156121235750600192915050565b6002600454036126f45760405162461bcd60e51b815260206004820152601f60248201527f5265656e7472616e637947756172643a207265656e7472616e742063616c6c0060448201526064016106f1565b6002600455565b6000816001036127815760405163e985e9c560e01b81526001600160a01b03848116600483015230602483015285919082169063e985e9c5906044015b602060405180830381865afa158015612755573d6000803e3d6000fd5b505050506040513d601f19601f820116820180604052508101906127799190613750565b9150506124ea565b60405163e985e9c560e01b81526001600160a01b03848116600483015230602483015285919082169063e985e9c590604401612738565b60008060006127c685611947565b6020015160055490915060009082906127e990610100900460ff166103e861376d565b61ffff166127f79190613570565b600554909150819061281190610100900460ff1687613788565b61281b91906137a7565b9350806128288387613788565b61283291906137a7565b925050509250929050565b8047101561288d5760405162461bcd60e51b815260206004820152601d60248201527f416464726573733a20696e73756666696369656e742062616c616e636500000060448201526064016106f1565b6000826001600160a01b03168260405160006040518083038185875af1925050503d80600081146128da576040519150601f19603f3d011682016040523d82523d6000602084013e6128df565b606091505b50509050806107475760405162461bcd60e51b815260206004820152603a60248201527f416464726573733a20756e61626c6520746f2073656e642076616c75652c207260448201527f6563697069656e74206d6179206861766520726576657274656400000000000060648201526084016106f1565b612474846323b872dd60e01b85858560405160240161297793929190613604565b60408051601f198184030181529190526020810180516001600160e01b03166001600160e01b031990931692909217909152612bfd565b6001600160a01b03821660009081526008602052604090206129d09082612ccf565b15612360576001600160a01b0382166000818152600860208181526040808420868552600280820184529185208581556001810186905591820180546001600160a01b0319169055600382018590556004820185905560059091018490559390925290526107479082612bc7565b60006124ea8383612ce7565b600080546001600160a01b038381166001600160a01b0319831681178455604051919092169283917f8be0079c531659141344cd1fd0a4f28419497f9722a3daafe3b4186f6b6457e09190a35050565b6000612ab483836000015184604001518560800151612d36565b8015612675575061267583836040015184608001516126fb565b6123608282604051602401612ae4929190613819565b60408051601f198184030181529190526020810180516001600160e01b0316632d839cb360e21b179052612e56565b6000816001600160a01b0316638da5cb5b6040518163ffffffff1660e01b8152600401602060405180830381865afa925050508015612b6f575060408051601f3d908101601f19168201909252612b6c9181019061383b565b60015b61212357506000919050565b60006124ea836001600160a01b038416612ce7565b6001600160a01b038116600090815260018301602052604081205415156124ea565b60006124ea836001600160a01b038416612e77565b60006124ea8383612e77565b6000826000018281548110612bea57612bea6135ac565b9060005260206000200154905092915050565b6000612c52826040518060400160405280602081526020017f5361666545524332303a206c6f772d6c6576656c2063616c6c206661696c6564815250856001600160a01b0316612f6a9092919063ffffffff16565b8051909150156107475780806020019051810190612c709190613750565b6107475760405162461bcd60e51b815260206004820152602a60248201527f5361666545524332303a204552433230206f7065726174696f6e20646964206e6044820152691bdd081cdd58d8d9595960b21b60648201526084016106f1565b600081815260018301602052604081205415156124ea565b6000818152600183016020526040812054612d2e57508154600181810184556000848152602080822090930184905584548482528286019093526040902091909155612123565b506000612123565b600081600103612dcf576040516331a9108f60e11b81526004810185905285906001600160a01b03821690636352211e90602401602060405180830381865afa925050508015612da3575060408051601f3d908101601f19168201909252612da09181019061383b565b60015b612db1576000915050612e4e565b846001600160a01b0316816001600160a01b03161492505050612e4e565b604051627eeac760e11b81526001600160a01b0384811660048301526024820186905286919082169062fdd58e90604401602060405180830381865afa925050508015612e39575060408051601f3d908101601f19168201909252612e3691810190613737565b60015b612e47576000915050612e4e565b6001925050505b949350505050565b80516a636f6e736f6c652e6c6f67602083016000808483855afa5050505050565b60008181526001830160205260408120548015612f60576000612e9b600183613583565b8554909150600090612eaf90600190613583565b9050818114612f14576000866000018281548110612ecf57612ecf6135ac565b9060005260206000200154905080876000018481548110612ef257612ef26135ac565b6000918252602080832090910192909255918252600188019052604090208390555b8554869080612f2557612f25613858565b600190038181906000526020600020016000905590558560010160008681526020019081526020016000206000905560019350505050612123565b6000915050612123565b6060612e4e848460008585600080866001600160a01b03168587604051612f91919061386e565b60006040518083038185875af1925050503d8060008114612fce576040519150601f19603f3d011682016040523d82523d6000602084013e612fd3565b606091505b5091509150612fe487838387612fef565b979650505050505050565b6060831561305e578251600003613057576001600160a01b0385163b6130575760405162461bcd60e51b815260206004820152601d60248201527f416464726573733a2063616c6c20746f206e6f6e2d636f6e747261637400000060448201526064016106f1565b5081612e4e565b612e4e83838151156130735781518083602001fd5b8060405162461bcd60e51b81526004016106f1919061388a565b6040518060e00160405280600081526020016000815260200160006001600160a01b03168152602001600081526020016000815260200160008152602001600081525090565b6001600160a01b038116811461219f57600080fd5b600080604083850312156130fb57600080fd5b8235613106816130d3565b946020939093013593505050565b60008060006060848603121561312957600080fd5b8335613134816130d3565b92506020840135613144816130d3565b929592945050506040919091013590565b80518252602080820151908301526040808201516001600160a01b031690830152606080820151908301526080808201519083015260a0808201519083015260c090810151910152565b60e081016121238284613155565b6000602082840312156131bf57600080fd5b5035919050565b6000806000606084860312156131db57600080fd5b83356131e6816130d3565b95602085013595506040909401359392505050565b6020808252825182820181905260009190848201906040850190845b8181101561323d5761322a838551613155565b9284019260e09290920191600101613217565b50909695505050505050565b600080600080600080600060e0888a03121561326457600080fd5b873561326f816130d3565b9650602088013595506040880135613286816130d3565b969995985095966060810135965060808101359560a0820135955060c0909101359350915050565b803560ff811681146112a157600080fd5b60008060008060008060c087890312156132d857600080fd5b86356132e3816130d3565b95506020870135945060408701359350606087013592506080870135915061330d60a088016132ae565b90509295509295509295565b600080600080600060a0868803121561333157600080fd5b853561333c816130d3565b97602087013597506040870135966060810135965060800135945092505050565b60006020828403121561336f57600080fd5b81356124ea816130d3565b60008060006060848603121561338f57600080fd5b833561339a816130d3565b92506020840135915060408401356133b1816130d3565b809150509250925092565b80518252602080820151908301526040808201516001600160a01b031690830152606080820151908301526080808201519083015260a090810151910152565b60c0810161212382846133bc565b600080600080600080600060e0888a03121561342557600080fd5b8735613430816130d3565b9960208901359950604089013598606081013598506080810135975060a0810135965060c00135945092505050565b801515811461219f57600080fd5b60006020828403121561347f57600080fd5b81356124ea8161345f565b600080600080608085870312156134a057600080fd5b84356134ab816130d3565b935060208501356134bb816130d3565b93969395505050506040820135916060013590565b6000602082840312156134e257600080fd5b6124ea826132ae565b60208082526036908201527f506c65617365207365742074686520726f79616c74792070657263656e74616e60408201527567652062656c6f7720616c6c6f7765642072616e676560501b606082015260800190565b634e487b7160e01b600052601160045260246000fd5b60006001820161356957613569613541565b5060010190565b8082018082111561212357612123613541565b8181038181111561212357612123613541565b634e487b7160e01b600052604160045260246000fd5b634e487b7160e01b600052603260045260246000fd5b60208082526022908201527f5468652076616c75652073656e642069732062656c6f772073616c6520707269604082015261636560f01b606082015260800190565b6001600160a01b039384168152919092166020820152604081019190915260600190565b6001600160a01b0394851681529290931660208301526040820152606081019190915260a060808201819052600490820152630307830360e41b60c082015260e00190565b610120810161367c8286613155565b60e08201939093526101000152919050565b60208082526024908201527f506c6561736520656e7465722061206c6f6e67657220706572696f64206f662060408201526374696d6560e01b606082015260800190565b60208082526025908201527f506c6561736520656e74657220612073686f7274657220706572696f64206f666040820152642074696d6560d81b606082015260800190565b610100810161372682866133bc565b60c082019390935260e00152919050565b60006020828403121561374957600080fd5b5051919050565b60006020828403121561376257600080fd5b81516124ea8161345f565b61ffff818116838216019080821115611b9b57611b9b613541565b60008160001904831182151516156137a2576137a2613541565b500290565b6000826137c457634e487b7160e01b600052601260045260246000fd5b500490565b60005b838110156137e45781810151838201526020016137cc565b50506000910152565b600081518084526138058160208601602086016137c9565b601f01601f19169290920160200192915050565b60408152600061382c60408301856137ed565b90508260208301529392505050565b60006020828403121561384d57600080fd5b81516124ea816130d3565b634e487b7160e01b600052603160045260246000fd5b600082516138808184602087016137c9565b9190910192915050565b6020815260006124ea60208301846137ed56fea26469706673582212203ad2616b8c104d45aa75767c8f6d54fca4a794c700b2e829de26c0862c3df52164736f6c63430008100033",
  "linkReferences": {},
  "deployedLinkReferences": {}
}