{
  "_format": "hh-sol-artifact-1",
  "contractName": "TestERC721",
  "sourceName": "contracts/TestHelper/ERC721.sol",
  "abi": [
    {
      "inputs": [],
      "stateMutability": "nonpayable",
      "type": "constructor"
    },
    {
      "anonymous": false,
      "inputs": [
        {
          "indexed": true,
          "internalType": "address",
          "name": "owner",
          "type": "address"
        },
        {
          "indexed": true,
          "internalType": "address",
          "name": "approved",
          "type": "address"
        },
        {
          "indexed": true,
          "internalType": "uint256",
          "name": "tokenId",
          "type": "uint256"
        }
      ],
      "name": "Approval",
      "type": "event"
    },
    {
      "anonymous": false,
      "inputs": [
        {
          "indexed": true,
          "internalType": "address",
          "name": "owner",
          "type": "address"
        },
        {
          "indexed": true,
          "internalType": "address",
          "name": "operator",
          "type": "address"
        },
        {
          "indexed": false,
          "internalType": "bool",
          "name": "approved",
          "type": "bool"
        }
      ],
      "name": "ApprovalForAll",
      "type": "event"
    },
    {
      "anonymous": false,
      "inputs": [
        {
          "indexed": true,
          "internalType": "address",
          "name": "previousOwner",
          "type": "address"
        },
        {
          "indexed": true,
          "internalType": "address",
          "name": "newOwner",
          "type": "address"
        }
      ],
      "name": "OwnershipTransferred",
      "type": "event"
    },
    {
      "anonymous": false,
      "inputs": [
        {
          "indexed": true,
          "internalType": "address",
          "name": "from",
          "type": "address"
        },
        {
          "indexed": true,
          "internalType": "address",
          "name": "to",
          "type": "address"
        },
        {
          "indexed": true,
          "internalType": "uint256",
          "name": "tokenId",
          "type": "uint256"
        }
      ],
      "name": "Transfer",
      "type": "event"
    },
    {
      "inputs": [
        {
          "internalType": "address",
          "name": "to",
          "type": "address"
        },
        {
          "internalType": "uint256",
          "name": "tokenId",
          "type": "uint256"
        }
      ],
      "name": "approve",
      "outputs": [],
      "stateMutability": "nonpayable",
      "type": "function"
    },
    {
      "inputs": [
        {
          "internalType": "address",
          "name": "owner",
          "type": "address"
        }
      ],
      "name": "balanceOf",
      "outputs": [
        {
          "internalType": "uint256",
          "name": "",
          "type": "uint256"
        }
      ],
      "stateMutability": "view",
      "type": "function"
    },
    {
      "inputs": [
        {
          "internalType": "uint256",
          "name": "tokenId",
          "type": "uint256"
        }
      ],
      "name": "getApproved",
      "outputs": [
        {
          "internalType": "address",
          "name": "",
          "type": "address"
        }
      ],
      "stateMutability": "view",
      "type": "function"
    },
    {
      "inputs": [
        {
          "internalType": "address",
          "name": "owner",
          "type": "address"
        },
        {
          "internalType": "address",
          "name": "operator",
          "type": "address"
        }
      ],
      "name": "isApprovedForAll",
      "outputs": [
        {
          "internalType": "bool",
          "name": "",
          "type": "bool"
        }
      ],
      "stateMutability": "view",
      "type": "function"
    },
    {
      "inputs": [
        {
          "internalType": "uint256",
          "name": "_tokenId",
          "type": "uint256"
        }
      ],
      "name": "mint",
      "outputs": [],
      "stateMutability": "nonpayable",
      "type": "function"
    },
    {
      "inputs": [],
      "name": "name",
      "outputs": [
        {
          "internalType": "string",
          "name": "",
          "type": "string"
        }
      ],
      "stateMutability": "view",
      "type": "function"
    },
    {
      "inputs": [],
      "name": "owner",
      "outputs": [
        {
          "internalType": "address",
          "name": "",
          "type": "address"
        }
      ],
      "stateMutability": "view",
      "type": "function"
    },
    {
      "inputs": [
        {
          "internalType": "uint256",
          "name": "tokenId",
          "type": "uint256"
        }
      ],
      "name": "ownerOf",
      "outputs": [
        {
          "internalType": "address",
          "name": "",
          "type": "address"
        }
      ],
      "stateMutability": "view",
      "type": "function"
    },
    {
      "inputs": [],
      "name": "renounceOwnership",
      "outputs": [],
      "stateMutability": "nonpayable",
      "type": "function"
    },
    {
      "inputs": [
        {
          "internalType": "address",
          "name": "from",
          "type": "address"
        },
        {
          "internalType": "address",
          "name": "to",
          "type": "address"
        },
        {
          "internalType": "uint256",
          "name": "tokenId",
          "type": "uint256"
        }
      ],
      "name": "safeTransferFrom",
      "outputs": [],
      "stateMutability": "nonpayable",
      "type": "function"
    },
    {
      "inputs": [
        {
          "internalType": "address",
          "name": "from",
          "type": "address"
        },
        {
          "internalType": "address",
          "name": "to",
          "type": "address"
        },
        {
          "internalType": "uint256",
          "name": "tokenId",
          "type": "uint256"
        },
        {
          "internalType": "bytes",
          "name": "data",
          "type": "bytes"
        }
      ],
      "name": "safeTransferFrom",
      "outputs": [],
      "stateMutability": "nonpayable",
      "type": "function"
    },
    {
      "inputs": [
        {
          "internalType": "address",
          "name": "operator",
          "type": "address"
        },
        {
          "internalType": "bool",
          "name": "approved",
          "type": "bool"
        }
      ],
      "name": "setApprovalForAll",
      "outputs": [],
      "stateMutability": "nonpayable",
      "type": "function"
    },
    {
      "inputs": [
        {
          "internalType": "bytes4",
          "name": "interfaceId",
          "type": "bytes4"
        }
      ],
      "name": "supportsInterface",
      "outputs": [
        {
          "internalType": "bool",
          "name": "",
          "type": "bool"
        }
      ],
      "stateMutability": "view",
      "type": "function"
    },
    {
      "inputs": [],
      "name": "symbol",
      "outputs": [
        {
          "internalType": "string",
          "name": "",
          "type": "string"
        }
      ],
      "stateMutability": "view",
      "type": "function"
    },
    {
      "inputs": [
        {
          "internalType": "uint256",
          "name": "index",
          "type": "uint256"
        }
      ],
      "name": "tokenByIndex",
      "outputs": [
        {
          "internalType": "uint256",
          "name": "",
          "type": "uint256"
        }
      ],
      "stateMutability": "view",
      "type": "function"
    },
    {
      "inputs": [
        {
          "internalType": "address",
          "name": "owner",
          "type": "address"
        },
        {
          "internalType": "uint256",
          "name": "index",
          "type": "uint256"
        }
      ],
      "name": "tokenOfOwnerByIndex",
      "outputs": [
        {
          "internalType": "uint256",
          "name": "",
          "type": "uint256"
        }
      ],
      "stateMutability": "view",
      "type": "function"
    },
    {
      "inputs": [
        {
          "internalType": "uint256",
          "name": "tokenId",
          "type": "uint256"
        }
      ],
      "name": "tokenURI",
      "outputs": [
        {
          "internalType": "string",
          "name": "",
          "type": "string"
        }
      ],
      "stateMutability": "view",
      "type": "function"
    },
    {
      "inputs": [],
      "name": "totalSupply",
      "outputs": [
        {
          "internalType": "uint256",
          "name": "",
          "type": "uint256"
        }
      ],
      "stateMutability": "view",
      "type": "function"
    },
    {
      "inputs": [
        {
          "internalType": "address",
          "name": "from",
          "type": "address"
        },
        {
          "internalType": "address",
          "name": "to",
          "type": "address"
        },
        {
          "internalType": "uint256",
          "name": "tokenId",
          "type": "uint256"
        }
      ],
      "name": "transferFrom",
      "outputs": [],
      "stateMutability": "nonpayable",
      "type": "function"
    },
    {
      "inputs": [
        {
          "internalType": "address",
          "name": "newOwner",
          "type": "address"
        }
      ],
      "name": "transferOwnership",
      "outputs": [],
      "stateMutability": "nonpayable",
      "type": "function"
    }
  ],
  "bytecode": "0x60806040523480156200001157600080fd5b506040518060400160405280600b81526020016a546573742045524337323160a81b815250604051806040016040528060048152602001635437323160e01b815250816000908162000064919062000191565b50600162000073828262000191565b505050620000906200008a6200009660201b60201c565b6200009a565b6200025d565b3390565b600a80546001600160a01b038381166001600160a01b0319831681179093556040519116919082907f8be0079c531659141344cd1fd0a4f28419497f9722a3daafe3b4186f6b6457e090600090a35050565b634e487b7160e01b600052604160045260246000fd5b600181811c908216806200011757607f821691505b6020821081036200013857634e487b7160e01b600052602260045260246000fd5b50919050565b601f8211156200018c57600081815260208120601f850160051c81016020861015620001675750805b601f850160051c820191505b81811015620001885782815560010162000173565b5050505b505050565b81516001600160401b03811115620001ad57620001ad620000ec565b620001c581620001be845462000102565b846200013e565b602080601f831160018114620001fd5760008415620001e45750858301515b600019600386901b1c1916600185901b17855562000188565b600085815260208120601f198616915b828110156200022e578886015182559484019460019091019084016200020d565b50858210156200024d5787850151600019600388901b60f8161c191681555b5050505050600190811b01905550565b6119fe806200026d6000396000f3fe608060405234801561001057600080fd5b506004361061012c5760003560e01c806370a08231116100ad578063a22cb46511610071578063a22cb46514610266578063b88d4fde14610279578063c87b56dd1461028c578063e985e9c51461029f578063f2fde38b146102db57600080fd5b806370a082311461021f578063715018a6146102325780638da5cb5b1461023a57806395d89b411461024b578063a0712d681461025357600080fd5b806323b872dd116100f457806323b872dd146101c05780632f745c59146101d357806342842e0e146101e65780634f6ccce7146101f95780636352211e1461020c57600080fd5b806301ffc9a71461013157806306fdde0314610159578063081812fc1461016e578063095ea7b31461019957806318160ddd146101ae575b600080fd5b61014461013f366004611522565b6102ee565b60405190151581526020015b60405180910390f35b610161610319565b604051610150919061158f565b61018161017c3660046115a2565b6103ab565b6040516001600160a01b039091168152602001610150565b6101ac6101a73660046115d7565b6103d2565b005b6008545b604051908152602001610150565b6101ac6101ce366004611601565b6104ec565b6101b26101e13660046115d7565b61051d565b6101ac6101f4366004611601565b6105b3565b6101b26102073660046115a2565b6105ce565b61018161021a3660046115a2565b610661565b6101b261022d36600461163d565b6106c1565b6101ac610747565b600a546001600160a01b0316610181565b61016161075b565b6101ac6102613660046115a2565b61076a565b6101ac610274366004611658565b610777565b6101ac6102873660046116aa565b610786565b61016161029a3660046115a2565b6107be565b6101446102ad366004611786565b6001600160a01b03918216600090815260056020908152604080832093909416825291909152205460ff1690565b6101ac6102e936600461163d565b610832565b60006001600160e01b0319821663780e9d6360e01b14806103135750610313826108a8565b92915050565b606060008054610328906117b9565b80601f0160208091040260200160405190810160405280929190818152602001828054610354906117b9565b80156103a15780601f10610376576101008083540402835291602001916103a1565b820191906000526020600020905b81548152906001019060200180831161038457829003601f168201915b5050505050905090565b60006103b6826108f8565b506000908152600460205260409020546001600160a01b031690565b60006103dd82610661565b9050806001600160a01b0316836001600160a01b03160361044f5760405162461bcd60e51b815260206004820152602160248201527f4552433732313a20617070726f76616c20746f2063757272656e74206f776e656044820152603960f91b60648201526084015b60405180910390fd5b336001600160a01b038216148061046b575061046b81336102ad565b6104dd5760405162461bcd60e51b815260206004820152603d60248201527f4552433732313a20617070726f76652063616c6c6572206973206e6f7420746f60448201527f6b656e206f776e6572206f7220617070726f76656420666f7220616c6c0000006064820152608401610446565b6104e78383610957565b505050565b6104f633826109c5565b6105125760405162461bcd60e51b8152600401610446906117f3565b6104e7838383610a44565b6000610528836106c1565b821061058a5760405162461bcd60e51b815260206004820152602b60248201527f455243373231456e756d657261626c653a206f776e657220696e646578206f7560448201526a74206f6620626f756e647360a81b6064820152608401610446565b506001600160a01b03919091166000908152600660209081526040808320938352929052205490565b6104e783838360405180602001604052806000815250610786565b60006105d960085490565b821061063c5760405162461bcd60e51b815260206004820152602c60248201527f455243373231456e756d657261626c653a20676c6f62616c20696e646578206f60448201526b7574206f6620626f756e647360a01b6064820152608401610446565b6008828154811061064f5761064f611840565b90600052602060002001549050919050565b6000818152600260205260408120546001600160a01b0316806103135760405162461bcd60e51b8152602060048201526018602482015277115490cdcc8c4e881a5b9d985b1a59081d1bdad95b88125160421b6044820152606401610446565b60006001600160a01b03821661072b5760405162461bcd60e51b815260206004820152602960248201527f4552433732313a2061646472657373207a65726f206973206e6f7420612076616044820152683634b21037bbb732b960b91b6064820152608401610446565b506001600160a01b031660009081526003602052604090205490565b61074f610bb5565b6107596000610c0f565b565b606060018054610328906117b9565b6107743382610c61565b50565b610782338383610c7b565b5050565b61079033836109c5565b6107ac5760405162461bcd60e51b8152600401610446906117f3565b6107b884848484610d49565b50505050565b60606107c9826108f8565b60006107e060408051602081019091526000815290565b90506000815111610800576040518060200160405280600081525061082b565b8061080a84610d7c565b60405160200161081b929190611856565b6040516020818303038152906040525b9392505050565b61083a610bb5565b6001600160a01b03811661089f5760405162461bcd60e51b815260206004820152602660248201527f4f776e61626c653a206e6577206f776e657220697320746865207a65726f206160448201526564647265737360d01b6064820152608401610446565b61077481610c0f565b60006001600160e01b031982166380ac58cd60e01b14806108d957506001600160e01b03198216635b5e139f60e01b145b8061031357506301ffc9a760e01b6001600160e01b0319831614610313565b6000818152600260205260409020546001600160a01b03166107745760405162461bcd60e51b8152602060048201526018602482015277115490cdcc8c4e881a5b9d985b1a59081d1bdad95b88125160421b6044820152606401610446565b600081815260046020526040902080546001600160a01b0319166001600160a01b038416908117909155819061098c82610661565b6001600160a01b03167f8c5be1e5ebec7d5bd14f71427d1e84f3dd0314c0f7b2291e5b200ac8c7c3b92560405160405180910390a45050565b6000806109d183610661565b9050806001600160a01b0316846001600160a01b03161480610a1857506001600160a01b0380821660009081526005602090815260408083209388168352929052205460ff165b80610a3c5750836001600160a01b0316610a31846103ab565b6001600160a01b0316145b949350505050565b826001600160a01b0316610a5782610661565b6001600160a01b031614610a7d5760405162461bcd60e51b815260040161044690611885565b6001600160a01b038216610adf5760405162461bcd60e51b8152602060048201526024808201527f4552433732313a207472616e7366657220746f20746865207a65726f206164646044820152637265737360e01b6064820152608401610446565b610aec8383836001610e0f565b826001600160a01b0316610aff82610661565b6001600160a01b031614610b255760405162461bcd60e51b815260040161044690611885565b600081815260046020908152604080832080546001600160a01b03199081169091556001600160a01b0387811680865260038552838620805460001901905590871680865283862080546001019055868652600290945282852080549092168417909155905184937fddf252ad1be2c89b69c2b068fc378daa952ba7f163c4a11628f55a4df523b3ef91a4505050565b600a546001600160a01b031633146107595760405162461bcd60e51b815260206004820181905260248201527f4f776e61626c653a2063616c6c6572206973206e6f7420746865206f776e65726044820152606401610446565b600a80546001600160a01b038381166001600160a01b0319831681179093556040519116919082907f8be0079c531659141344cd1fd0a4f28419497f9722a3daafe3b4186f6b6457e090600090a35050565b610782828260405180602001604052806000815250610f4f565b816001600160a01b0316836001600160a01b031603610cdc5760405162461bcd60e51b815260206004820152601960248201527f4552433732313a20617070726f766520746f2063616c6c6572000000000000006044820152606401610446565b6001600160a01b03838116600081815260056020908152604080832094871680845294825291829020805460ff191686151590811790915591519182527f17307eab39ab6107e8899845ad3d59bd9653f200f220920489ca2b5937696c31910160405180910390a3505050565b610d54848484610a44565b610d6084848484610f82565b6107b85760405162461bcd60e51b8152600401610446906118ca565b60606000610d8983611083565b600101905060008167ffffffffffffffff811115610da957610da9611694565b6040519080825280601f01601f191660200182016040528015610dd3576020820181803683370190505b5090508181016020015b600019016f181899199a1a9b1b9c1cb0b131b232b360811b600a86061a8153600a8504945084610ddd57509392505050565b610e1b8484848461115b565b6001811115610e8a5760405162461bcd60e51b815260206004820152603560248201527f455243373231456e756d657261626c653a20636f6e7365637574697665207472604482015274185b9cd9995c9cc81b9bdd081cdd5c1c1bdc9d1959605a1b6064820152608401610446565b816001600160a01b038516610ee657610ee181600880546000838152600960205260408120829055600182018355919091527ff3f7a9fe364faab93b216da50a3214154f22a0a2b415b23a84c8169e8b636ee30155565b610f09565b836001600160a01b0316856001600160a01b031614610f0957610f0985826111e3565b6001600160a01b038416610f2557610f2081611280565b610f48565b846001600160a01b0316846001600160a01b031614610f4857610f48848261132f565b5050505050565b610f598383611373565b610f666000848484610f82565b6104e75760405162461bcd60e51b8152600401610446906118ca565b60006001600160a01b0384163b1561107857604051630a85bd0160e11b81526001600160a01b0385169063150b7a0290610fc690339089908890889060040161191c565b6020604051808303816000875af1925050508015611001575060408051601f3d908101601f19168201909252610ffe91810190611959565b60015b61105e573d80801561102f576040519150601f19603f3d011682016040523d82523d6000602084013e611034565b606091505b5080516000036110565760405162461bcd60e51b8152600401610446906118ca565b805181602001fd5b6001600160e01b031916630a85bd0160e11b149050610a3c565b506001949350505050565b60008072184f03e93ff9f4daa797ed6e38ed64bf6a1f0160401b83106110c25772184f03e93ff9f4daa797ed6e38ed64bf6a1f0160401b830492506040015b6d04ee2d6d415b85acef810000000083106110ee576d04ee2d6d415b85acef8100000000830492506020015b662386f26fc10000831061110c57662386f26fc10000830492506010015b6305f5e1008310611124576305f5e100830492506008015b612710831061113857612710830492506004015b6064831061114a576064830492506002015b600a83106103135760010192915050565b60018111156107b8576001600160a01b038416156111a1576001600160a01b0384166000908152600360205260408120805483929061119b90849061198c565b90915550505b6001600160a01b038316156107b8576001600160a01b038316600090815260036020526040812080548392906111d890849061199f565b909155505050505050565b600060016111f0846106c1565b6111fa919061198c565b60008381526007602052604090205490915080821461124d576001600160a01b03841660009081526006602090815260408083208584528252808320548484528184208190558352600790915290208190555b5060009182526007602090815260408084208490556001600160a01b039094168352600681528383209183525290812055565b6008546000906112929060019061198c565b600083815260096020526040812054600880549394509092849081106112ba576112ba611840565b9060005260206000200154905080600883815481106112db576112db611840565b6000918252602080832090910192909255828152600990915260408082208490558582528120556008805480611313576113136119b2565b6001900381819060005260206000200160009055905550505050565b600061133a836106c1565b6001600160a01b039093166000908152600660209081526040808320868452825280832085905593825260079052919091209190915550565b6001600160a01b0382166113c95760405162461bcd60e51b815260206004820181905260248201527f4552433732313a206d696e7420746f20746865207a65726f20616464726573736044820152606401610446565b6000818152600260205260409020546001600160a01b03161561142e5760405162461bcd60e51b815260206004820152601c60248201527f4552433732313a20746f6b656e20616c7265616479206d696e746564000000006044820152606401610446565b61143c600083836001610e0f565b6000818152600260205260409020546001600160a01b0316156114a15760405162461bcd60e51b815260206004820152601c60248201527f4552433732313a20746f6b656e20616c7265616479206d696e746564000000006044820152606401610446565b6001600160a01b038216600081815260036020908152604080832080546001019055848352600290915280822080546001600160a01b0319168417905551839291907fddf252ad1be2c89b69c2b068fc378daa952ba7f163c4a11628f55a4df523b3ef908290a45050565b6001600160e01b03198116811461077457600080fd5b60006020828403121561153457600080fd5b813561082b8161150c565b60005b8381101561155a578181015183820152602001611542565b50506000910152565b6000815180845261157b81602086016020860161153f565b601f01601f19169290920160200192915050565b60208152600061082b6020830184611563565b6000602082840312156115b457600080fd5b5035919050565b80356001600160a01b03811681146115d257600080fd5b919050565b600080604083850312156115ea57600080fd5b6115f3836115bb565b946020939093013593505050565b60008060006060848603121561161657600080fd5b61161f846115bb565b925061162d602085016115bb565b9150604084013590509250925092565b60006020828403121561164f57600080fd5b61082b826115bb565b6000806040838503121561166b57600080fd5b611674836115bb565b91506020830135801515811461168957600080fd5b809150509250929050565b634e487b7160e01b600052604160045260246000fd5b600080600080608085870312156116c057600080fd5b6116c9856115bb565b93506116d7602086016115bb565b925060408501359150606085013567ffffffffffffffff808211156116fb57600080fd5b818701915087601f83011261170f57600080fd5b81358181111561172157611721611694565b604051601f8201601f19908116603f0116810190838211818310171561174957611749611694565b816040528281528a602084870101111561176257600080fd5b82602086016020830137600060208483010152809550505050505092959194509250565b6000806040838503121561179957600080fd5b6117a2836115bb565b91506117b0602084016115bb565b90509250929050565b600181811c908216806117cd57607f821691505b6020821081036117ed57634e487b7160e01b600052602260045260246000fd5b50919050565b6020808252602d908201527f4552433732313a2063616c6c6572206973206e6f7420746f6b656e206f776e6560408201526c1c881bdc88185c1c1c9bdd9959609a1b606082015260800190565b634e487b7160e01b600052603260045260246000fd5b6000835161186881846020880161153f565b83519083019061187c81836020880161153f565b01949350505050565b60208082526025908201527f4552433732313a207472616e736665722066726f6d20696e636f72726563742060408201526437bbb732b960d91b606082015260800190565b60208082526032908201527f4552433732313a207472616e7366657220746f206e6f6e20455243373231526560408201527131b2b4bb32b91034b6b83632b6b2b73a32b960711b606082015260800190565b6001600160a01b038581168252841660208201526040810183905260806060820181905260009061194f90830184611563565b9695505050505050565b60006020828403121561196b57600080fd5b815161082b8161150c565b634e487b7160e01b600052601160045260246000fd5b8181038181111561031357610313611976565b8082018082111561031357610313611976565b634e487b7160e01b600052603160045260246000fdfea2646970667358221220c902af2150dbeabc0d73b4984e82523cf669f426e7aef9fd5fdf15157d3f834164736f6c63430008100033",
  "linkReferences": {},
  "deployedLinkReferences": {}
}