{
  "_format": "hh-sol-artifact-1",
  "contractName": "TheeERC1155",
  "sourceName": "contracts/TheeERC1155.sol",
  "abi": [
    {
      "inputs": [
        {
          "internalType": "string",
          "name": "_name",
          "type": "string"
        },
        {
          "internalType": "address",
          "name": "_marketplace",
          "type": "address"
        }
      ],
      "stateMutability": "nonpayable",
      "type": "constructor"
    },
    {
      "anonymous": false,
      "inputs": [
        {
          "indexed": true,
          "internalType": "address",
          "name": "account",
          "type": "address"
        },
        {
          "indexed": true,
          "internalType": "address",
          "name": "operator",
          "type": "address"
        },
        {
          "indexed": false,
          "internalType": "bool",
          "name": "approved",
          "type": "bool"
        }
      ],
      "name": "ApprovalForAll",
      "type": "event"
    },
    {
      "anonymous": false,
      "inputs": [
        {
          "indexed": true,
          "internalType": "address",
          "name": "creator",
          "type": "address"
        },
        {
          "indexed": false,
          "internalType": "uint256",
          "name": "tokenId",
          "type": "uint256"
        },
        {
          "indexed": false,
          "internalType": "uint256",
          "name": "amount",
          "type": "uint256"
        }
      ],
      "name": "Mint",
      "type": "event"
    },
    {
      "anonymous": false,
      "inputs": [
        {
          "indexed": true,
          "internalType": "uint256",
          "name": "tokenId",
          "type": "uint256"
        },
        {
          "indexed": false,
          "internalType": "uint256[]",
          "name": "value",
          "type": "uint256[]"
        },
        {
          "indexed": false,
          "internalType": "address[]",
          "name": "recipient",
          "type": "address[]"
        }
      ],
      "name": "RoyaltyUpdated",
      "type": "event"
    },
    {
      "anonymous": false,
      "inputs": [
        {
          "indexed": true,
          "internalType": "address",
          "name": "operator",
          "type": "address"
        },
        {
          "indexed": true,
          "internalType": "address",
          "name": "from",
          "type": "address"
        },
        {
          "indexed": true,
          "internalType": "address",
          "name": "to",
          "type": "address"
        },
        {
          "indexed": false,
          "internalType": "uint256[]",
          "name": "ids",
          "type": "uint256[]"
        },
        {
          "indexed": false,
          "internalType": "uint256[]",
          "name": "values",
          "type": "uint256[]"
        }
      ],
      "name": "TransferBatch",
      "type": "event"
    },
    {
      "anonymous": false,
      "inputs": [
        {
          "indexed": true,
          "internalType": "address",
          "name": "operator",
          "type": "address"
        },
        {
          "indexed": true,
          "internalType": "address",
          "name": "from",
          "type": "address"
        },
        {
          "indexed": true,
          "internalType": "address",
          "name": "to",
          "type": "address"
        },
        {
          "indexed": false,
          "internalType": "uint256",
          "name": "id",
          "type": "uint256"
        },
        {
          "indexed": false,
          "internalType": "uint256",
          "name": "value",
          "type": "uint256"
        }
      ],
      "name": "TransferSingle",
      "type": "event"
    },
    {
      "anonymous": false,
      "inputs": [
        {
          "indexed": false,
          "internalType": "string",
          "name": "value",
          "type": "string"
        },
        {
          "indexed": true,
          "internalType": "uint256",
          "name": "id",
          "type": "uint256"
        }
      ],
      "name": "URI",
      "type": "event"
    },
    {
      "inputs": [
        {
          "internalType": "uint256",
          "name": "",
          "type": "uint256"
        }
      ],
      "name": "_tokenURIs",
      "outputs": [
        {
          "internalType": "string",
          "name": "",
          "type": "string"
        }
      ],
      "stateMutability": "view",
      "type": "function"
    },
    {
      "inputs": [
        {
          "internalType": "address",
          "name": "account",
          "type": "address"
        },
        {
          "internalType": "uint256",
          "name": "id",
          "type": "uint256"
        }
      ],
      "name": "balanceOf",
      "outputs": [
        {
          "internalType": "uint256",
          "name": "",
          "type": "uint256"
        }
      ],
      "stateMutability": "view",
      "type": "function"
    },
    {
      "inputs": [
        {
          "internalType": "address[]",
          "name": "accounts",
          "type": "address[]"
        },
        {
          "internalType": "uint256[]",
          "name": "ids",
          "type": "uint256[]"
        }
      ],
      "name": "balanceOfBatch",
      "outputs": [
        {
          "internalType": "uint256[]",
          "name": "",
          "type": "uint256[]"
        }
      ],
      "stateMutability": "view",
      "type": "function"
    },
    {
      "inputs": [
        {
          "internalType": "uint256",
          "name": "",
          "type": "uint256"
        }
      ],
      "name": "creator",
      "outputs": [
        {
          "internalType": "address",
          "name": "",
          "type": "address"
        }
      ],
      "stateMutability": "view",
      "type": "function"
    },
    {
      "inputs": [
        {
          "internalType": "uint256",
          "name": "id",
          "type": "uint256"
        }
      ],
      "name": "exists",
      "outputs": [
        {
          "internalType": "bool",
          "name": "",
          "type": "bool"
        }
      ],
      "stateMutability": "view",
      "type": "function"
    },
    {
      "inputs": [
        {
          "internalType": "address",
          "name": "account",
          "type": "address"
        },
        {
          "internalType": "address",
          "name": "operator",
          "type": "address"
        }
      ],
      "name": "isApprovedForAll",
      "outputs": [
        {
          "internalType": "bool",
          "name": "",
          "type": "bool"
        }
      ],
      "stateMutability": "view",
      "type": "function"
    },
    {
      "inputs": [
        {
          "internalType": "uint256",
          "name": "id_",
          "type": "uint256"
        },
        {
          "internalType": "uint256",
          "name": "amount_",
          "type": "uint256"
        },
        {
          "internalType": "address",
          "name": "to_",
          "type": "address"
        },
        {
          "internalType": "string",
          "name": "tokenURI",
          "type": "string"
        }
      ],
      "name": "mint",
      "outputs": [],
      "stateMutability": "nonpayable",
      "type": "function"
    },
    {
      "inputs": [
        {
          "internalType": "address",
          "name": "from",
          "type": "address"
        },
        {
          "internalType": "address",
          "name": "to",
          "type": "address"
        },
        {
          "internalType": "uint256[]",
          "name": "ids",
          "type": "uint256[]"
        },
        {
          "internalType": "uint256[]",
          "name": "amounts",
          "type": "uint256[]"
        },
        {
          "internalType": "bytes",
          "name": "data",
          "type": "bytes"
        }
      ],
      "name": "safeBatchTransferFrom",
      "outputs": [],
      "stateMutability": "nonpayable",
      "type": "function"
    },
    {
      "inputs": [
        {
          "internalType": "address",
          "name": "from",
          "type": "address"
        },
        {
          "internalType": "address",
          "name": "to",
          "type": "address"
        },
        {
          "internalType": "uint256",
          "name": "id",
          "type": "uint256"
        },
        {
          "internalType": "uint256",
          "name": "amount",
          "type": "uint256"
        },
        {
          "internalType": "bytes",
          "name": "data",
          "type": "bytes"
        }
      ],
      "name": "safeTransferFrom",
      "outputs": [],
      "stateMutability": "nonpayable",
      "type": "function"
    },
    {
      "inputs": [
        {
          "internalType": "address",
          "name": "operator",
          "type": "address"
        },
        {
          "internalType": "bool",
          "name": "approved",
          "type": "bool"
        }
      ],
      "name": "setApprovalForAll",
      "outputs": [],
      "stateMutability": "nonpayable",
      "type": "function"
    },
    {
      "inputs": [
        {
          "internalType": "bytes4",
          "name": "interfaceId",
          "type": "bytes4"
        }
      ],
      "name": "supportsInterface",
      "outputs": [
        {
          "internalType": "bool",
          "name": "",
          "type": "bool"
        }
      ],
      "stateMutability": "view",
      "type": "function"
    },
    {
      "inputs": [
        {
          "internalType": "uint256",
          "name": "id",
          "type": "uint256"
        }
      ],
      "name": "totalSupply",
      "outputs": [
        {
          "internalType": "uint256",
          "name": "",
          "type": "uint256"
        }
      ],
      "stateMutability": "view",
      "type": "function"
    },
    {
      "inputs": [
        {
          "internalType": "uint256",
          "name": "",
          "type": "uint256"
        }
      ],
      "name": "uri",
      "outputs": [
        {
          "internalType": "string",
          "name": "",
          "type": "string"
        }
      ],
      "stateMutability": "view",
      "type": "function"
    }
  ],
  "bytecode": "0x60a06040526103e86005553480156200001757600080fd5b5060405162001e6138038062001e618339810160408190526200003a916200009f565b8162000046816200005a565b506001600160a01b031660805250620002e2565b600262000068828262000216565b5050565b634e487b7160e01b600052604160045260246000fd5b80516001600160a01b03811681146200009a57600080fd5b919050565b60008060408385031215620000b357600080fd5b82516001600160401b0380821115620000cb57600080fd5b818501915085601f830112620000e057600080fd5b815181811115620000f557620000f56200006c565b604051601f8201601f19908116603f011681019083821181831017156200012057620001206200006c565b816040528281526020935088848487010111156200013d57600080fd5b600091505b8282101562000161578482018401518183018501529083019062000142565b60008484830101528096505050506200017c81860162000082565b925050509250929050565b600181811c908216806200019c57607f821691505b602082108103620001bd57634e487b7160e01b600052602260045260246000fd5b50919050565b601f8211156200021157600081815260208120601f850160051c81016020861015620001ec5750805b601f850160051c820191505b818110156200020d57828155600101620001f8565b5050505b505050565b81516001600160401b038111156200023257620002326200006c565b6200024a8162000243845462000187565b84620001c3565b602080601f831160018114620002825760008415620002695750858301515b600019600386901b1c1916600185901b1785556200020d565b600085815260208120601f198616915b82811015620002b35788860151825594840194600190910190840162000292565b5085821015620002d25787850151600019600388901b60f8161c191681555b5050505050600190811b01905550565b608051611b66620002fb60003960005050611b666000f3fe608060405234801561001057600080fd5b50600436106100ce5760003560e01c80634f558e791161008c578063a382a4d911610066578063a382a4d9146101fa578063bd85b0391461020d578063e985e9c51461022d578063f242432a1461026957600080fd5b80634f558e7914610184578063510b5158146101a6578063a22cb465146101e757600080fd5b8062fdd58e146100d357806301ffc9a7146100f95780630bb78ec11461011c5780630e89341c1461013c5780632eb2c2d61461014f5780634e1273f414610164575b600080fd5b6100e66100e13660046111a4565b61027c565b6040519081526020015b60405180910390f35b61010c6101073660046111e7565b610315565b60405190151581526020016100f0565b61012f61012a36600461120b565b610320565b6040516100f0919061126a565b61012f61014a36600461120b565b6103ba565b61016261015d3660046113d3565b61044e565b005b61017761017236600461147d565b61049a565b6040516100f09190611583565b61010c61019236600461120b565b600090815260036020526040902054151590565b6101cf6101b436600461120b565b6008602052600090815260409020546001600160a01b031681565b6040516001600160a01b0390911681526020016100f0565b6101626101f5366004611596565b6105c4565b6101626102083660046115d2565b6105d3565b6100e661021b36600461120b565b60009081526003602052604090205490565b61010c61023b366004611647565b6001600160a01b03918216600090815260016020908152604080832093909416825291909152205460ff1690565b61016261027736600461167a565b610674565b60006001600160a01b0383166102ec5760405162461bcd60e51b815260206004820152602a60248201527f455243313135353a2061646472657373207a65726f206973206e6f742061207660448201526930b634b21037bbb732b960b11b60648201526084015b60405180910390fd5b506000818152602081815260408083206001600160a01b03861684529091529020545b92915050565b600061030f826106b9565b60096020526000908152604090208054610339906116df565b80601f0160208091040260200160405190810160405280929190818152602001828054610365906116df565b80156103b25780601f10610387576101008083540402835291602001916103b2565b820191906000526020600020905b81548152906001019060200180831161039557829003601f168201915b505050505081565b6060600280546103c9906116df565b80601f01602080910402602001604051908101604052809291908181526020018280546103f5906116df565b80156104425780601f1061041757610100808354040283529160200191610442565b820191906000526020600020905b81548152906001019060200180831161042557829003601f168201915b50505050509050919050565b6001600160a01b03851633148061046a575061046a853361023b565b6104865760405162461bcd60e51b81526004016102e390611719565b6104938585858585610709565b5050505050565b606081518351146104ff5760405162461bcd60e51b815260206004820152602960248201527f455243313135353a206163636f756e747320616e6420696473206c656e677468604482015268040dad2e6dac2e8c6d60bb1b60648201526084016102e3565b6000835167ffffffffffffffff81111561051b5761051b61127d565b604051908082528060200260200182016040528015610544578160200160208202803683370190505b50905060005b84518110156105bc5761058f85828151811061056857610568611767565b602002602001015185838151811061058257610582611767565b602002602001015161027c565b8282815181106105a1576105a1611767565b60209081029190910101526105b581611793565b905061054a565b509392505050565b6105cf3383836108f4565b5050565b6105de8484846109d4565b600084815260086020526040902080546001600160a01b0319166001600160a01b03841617905561060f8482610abd565b60408051858152602081018590526001600160a01b038416917f4c209b5fc8ad50758f13e2e1088ba56a560dff690a1c6fef26394f4c03821c4f910160405180910390a261066e82858560405180602001604052806000815250610b53565b50505050565b6001600160a01b0385163314806106905750610690853361023b565b6106ac5760405162461bcd60e51b81526004016102e390611719565b6104938585858585610c76565b60006001600160e01b03198216636cdb3d1360e11b14806106ea57506001600160e01b031982166303a24d0760e21b145b8061030f57506301ffc9a760e01b6001600160e01b031983161461030f565b815183511461076b5760405162461bcd60e51b815260206004820152602860248201527f455243313135353a2069647320616e6420616d6f756e7473206c656e677468206044820152670dad2e6dac2e8c6d60c31b60648201526084016102e3565b6001600160a01b0384166107915760405162461bcd60e51b81526004016102e3906117ac565b336107a0818787878787610dae565b60005b84518110156108865760008582815181106107c0576107c0611767565b6020026020010151905060008583815181106107de576107de611767565b602090810291909101810151600084815280835260408082206001600160a01b038e16835290935291909120549091508181101561082e5760405162461bcd60e51b81526004016102e3906117f1565b6000838152602081815260408083206001600160a01b038e8116855292528083208585039055908b1682528120805484929061086b90849061183b565b925050819055505050508061087f90611793565b90506107a3565b50846001600160a01b0316866001600160a01b0316826001600160a01b03167f4a39dc06d4c0dbc64b70af90fd698a233a518aa5d07e595d983b8c0526c8f7fb87876040516108d692919061184e565b60405180910390a46108ec818787878787610f27565b505050505050565b816001600160a01b0316836001600160a01b0316036109675760405162461bcd60e51b815260206004820152602960248201527f455243313135353a2073657474696e6720617070726f76616c20737461747573604482015268103337b91039b2b63360b91b60648201526084016102e3565b6001600160a01b03838116600081815260016020908152604080832094871680845294825291829020805460ff191686151590811790915591519182527f17307eab39ab6107e8899845ad3d59bd9653f200f220920489ca2b5937696c31910160405180910390a3505050565b6000838152600860205260409020546001600160a01b03828116911614610a545760405162461bcd60e51b815260206004820152602e60248201527f5f6265666f7265546f6b656e4d696e743a20756e617574686f72697a6564206160448201526d1d1d195b5c1d081d1bc81b5a5b9d60921b60648201526084016102e3565b81600003610ab85760405162461bcd60e51b815260206004820152602b60248201527f5f6265666f7265546f6b656e4d696e743a20616d6f756e742073686f756c642060448201526a626520706f73697469766560a81b60648201526084016102e3565b505050565b6040805160208082018352600091829052848252600990529081208054610ae3906116df565b9050036105cf578051600003610b3b5760405162461bcd60e51b815260206004820152601f60248201527f5f7365745552493a20746f6b656e5552492073686f756c64206265207365740060448201526064016102e3565b6000828152600960205260409020610ab882826118c2565b6001600160a01b038416610bb35760405162461bcd60e51b815260206004820152602160248201527f455243313135353a206d696e7420746f20746865207a65726f206164647265736044820152607360f81b60648201526084016102e3565b336000610bbf85611082565b90506000610bcc85611082565b9050610bdd83600089858589610dae565b6000868152602081815260408083206001600160a01b038b16845290915281208054879290610c0d90849061183b565b909155505060408051878152602081018790526001600160a01b03808a1692600092918716917fc3d58168c5ae7397731d063d5bbf3d657854427343f4c083240f7aacaa2d0f62910160405180910390a4610c6d836000898989896110cd565b50505050505050565b6001600160a01b038416610c9c5760405162461bcd60e51b81526004016102e3906117ac565b336000610ca885611082565b90506000610cb585611082565b9050610cc5838989858589610dae565b6000868152602081815260408083206001600160a01b038c16845290915290205485811015610d065760405162461bcd60e51b81526004016102e3906117f1565b6000878152602081815260408083206001600160a01b038d8116855292528083208985039055908a16825281208054889290610d4390849061183b565b909155505060408051888152602081018890526001600160a01b03808b16928c821692918816917fc3d58168c5ae7397731d063d5bbf3d657854427343f4c083240f7aacaa2d0f62910160405180910390a4610da3848a8a8a8a8a6110cd565b505050505050505050565b6001600160a01b038516610e355760005b8351811015610e3357828181518110610dda57610dda611767565b602002602001015160036000868481518110610df857610df8611767565b602002602001015181526020019081526020016000206000828254610e1d919061183b565b90915550610e2c905081611793565b9050610dbf565b505b6001600160a01b0384166108ec5760005b8351811015610c6d576000848281518110610e6357610e63611767565b602002602001015190506000848381518110610e8157610e81611767565b6020026020010151905060006003600084815260200190815260200160002054905081811015610f045760405162461bcd60e51b815260206004820152602860248201527f455243313135353a206275726e20616d6f756e74206578636565647320746f74604482015267616c537570706c7960c01b60648201526084016102e3565b60009283526003602052604090922091039055610f2081611793565b9050610e46565b6001600160a01b0384163b156108ec5760405163bc197c8160e01b81526001600160a01b0385169063bc197c8190610f6b9089908990889088908890600401611982565b6020604051808303816000875af1925050508015610fa6575060408051601f3d908101601f19168201909252610fa3918101906119e0565b60015b61105257610fb26119fd565b806308c379a003610feb5750610fc6611a19565b80610fd15750610fed565b8060405162461bcd60e51b81526004016102e3919061126a565b505b60405162461bcd60e51b815260206004820152603460248201527f455243313135353a207472616e7366657220746f206e6f6e2d455243313135356044820152732932b1b2b4bb32b91034b6b83632b6b2b73a32b960611b60648201526084016102e3565b6001600160e01b0319811663bc197c8160e01b14610c6d5760405162461bcd60e51b81526004016102e390611aa3565b604080516001808252818301909252606091600091906020808301908036833701905050905082816000815181106110bc576110bc611767565b602090810291909101015292915050565b6001600160a01b0384163b156108ec5760405163f23a6e6160e01b81526001600160a01b0385169063f23a6e61906111119089908990889088908890600401611aeb565b6020604051808303816000875af192505050801561114c575060408051601f3d908101601f19168201909252611149918101906119e0565b60015b61115857610fb26119fd565b6001600160e01b0319811663f23a6e6160e01b14610c6d5760405162461bcd60e51b81526004016102e390611aa3565b80356001600160a01b038116811461119f57600080fd5b919050565b600080604083850312156111b757600080fd5b6111c083611188565b946020939093013593505050565b6001600160e01b0319811681146111e457600080fd5b50565b6000602082840312156111f957600080fd5b8135611204816111ce565b9392505050565b60006020828403121561121d57600080fd5b5035919050565b6000815180845260005b8181101561124a5760208185018101518683018201520161122e565b506000602082860101526020601f19601f83011685010191505092915050565b6020815260006112046020830184611224565b634e487b7160e01b600052604160045260246000fd5b601f8201601f1916810167ffffffffffffffff811182821017156112b9576112b961127d565b6040525050565b600067ffffffffffffffff8211156112da576112da61127d565b5060051b60200190565b600082601f8301126112f557600080fd5b81356020611302826112c0565b60405161130f8282611293565b83815260059390931b850182019282810191508684111561132f57600080fd5b8286015b8481101561134a5780358352918301918301611333565b509695505050505050565b600067ffffffffffffffff83111561136f5761136f61127d565b604051611386601f8501601f191660200182611293565b80915083815284848401111561139b57600080fd5b83836020830137600060208583010152509392505050565b600082601f8301126113c457600080fd5b61120483833560208501611355565b600080600080600060a086880312156113eb57600080fd5b6113f486611188565b945061140260208701611188565b9350604086013567ffffffffffffffff8082111561141f57600080fd5b61142b89838a016112e4565b9450606088013591508082111561144157600080fd5b61144d89838a016112e4565b9350608088013591508082111561146357600080fd5b50611470888289016113b3565b9150509295509295909350565b6000806040838503121561149057600080fd5b823567ffffffffffffffff808211156114a857600080fd5b818501915085601f8301126114bc57600080fd5b813560206114c9826112c0565b6040516114d68282611293565b83815260059390931b85018201928281019150898411156114f657600080fd5b948201945b8386101561151b5761150c86611188565b825294820194908201906114fb565b9650508601359250508082111561153157600080fd5b5061153e858286016112e4565b9150509250929050565b600081518084526020808501945080840160005b838110156115785781518752958201959082019060010161155c565b509495945050505050565b6020815260006112046020830184611548565b600080604083850312156115a957600080fd5b6115b283611188565b9150602083013580151581146115c757600080fd5b809150509250929050565b600080600080608085870312156115e857600080fd5b84359350602085013592506115ff60408601611188565b9150606085013567ffffffffffffffff81111561161b57600080fd5b8501601f8101871361162c57600080fd5b61163b87823560208401611355565b91505092959194509250565b6000806040838503121561165a57600080fd5b61166383611188565b915061167160208401611188565b90509250929050565b600080600080600060a0868803121561169257600080fd5b61169b86611188565b94506116a960208701611188565b93506040860135925060608601359150608086013567ffffffffffffffff8111156116d357600080fd5b611470888289016113b3565b600181811c908216806116f357607f821691505b60208210810361171357634e487b7160e01b600052602260045260246000fd5b50919050565b6020808252602e908201527f455243313135353a2063616c6c6572206973206e6f7420746f6b656e206f776e60408201526d195c881bdc88185c1c1c9bdd995960921b606082015260800190565b634e487b7160e01b600052603260045260246000fd5b634e487b7160e01b600052601160045260246000fd5b6000600182016117a5576117a561177d565b5060010190565b60208082526025908201527f455243313135353a207472616e7366657220746f20746865207a65726f206164604082015264647265737360d81b606082015260800190565b6020808252602a908201527f455243313135353a20696e73756666696369656e742062616c616e636520666f60408201526939103a3930b739b332b960b11b606082015260800190565b8082018082111561030f5761030f61177d565b6040815260006118616040830185611548565b82810360208401526118738185611548565b95945050505050565b601f821115610ab857600081815260208120601f850160051c810160208610156118a35750805b601f850160051c820191505b818110156108ec578281556001016118af565b815167ffffffffffffffff8111156118dc576118dc61127d565b6118f0816118ea84546116df565b8461187c565b602080601f831160018114611925576000841561190d5750858301515b600019600386901b1c1916600185901b1785556108ec565b600085815260208120601f198616915b8281101561195457888601518255948401946001909101908401611935565b50858210156119725787850151600019600388901b60f8161c191681555b5050505050600190811b01905550565b6001600160a01b0386811682528516602082015260a0604082018190526000906119ae90830186611548565b82810360608401526119c08186611548565b905082810360808401526119d48185611224565b98975050505050505050565b6000602082840312156119f257600080fd5b8151611204816111ce565b600060033d1115611a165760046000803e5060005160e01c5b90565b600060443d1015611a275790565b6040516003193d81016004833e81513d67ffffffffffffffff8160248401118184111715611a5757505050505090565b8285019150815181811115611a6f5750505050505090565b843d8701016020828501011115611a895750505050505090565b611a9860208286010187611293565b509095945050505050565b60208082526028908201527f455243313135353a204552433131353552656365697665722072656a656374656040820152676420746f6b656e7360c01b606082015260800190565b6001600160a01b03868116825285166020820152604081018490526060810183905260a060808201819052600090611b2590830184611224565b97965050505050505056fea26469706673582212200ef4ade325677e96e0e6ffd669c06465faa2277bc37bcff19332b2c8f301cd2964736f6c63430008100033",
  "linkReferences": {},
  "deployedLinkReferences": {}
}