{
  "_format": "hh-sol-artifact-1",
  "contractName": "Royalty",
  "sourceName": "contracts/Royalty.sol",
  "abi": [
    {
      "anonymous": false,
      "inputs": [
        {
          "indexed": true,
          "internalType": "address",
          "name": "previousOwner",
          "type": "address"
        },
        {
          "indexed": true,
          "internalType": "address",
          "name": "newOwner",
          "type": "address"
        }
      ],
      "name": "OwnershipTransferred",
      "type": "event"
    },
    {
      "anonymous": false,
      "inputs": [
        {
          "indexed": true,
          "internalType": "address",
          "name": "contractAddress",
          "type": "address"
        },
        {
          "indexed": true,
          "internalType": "address",
          "name": "recipient",
          "type": "address"
        },
        {
          "indexed": false,
          "internalType": "uint256",
          "name": "feeFraction",
          "type": "uint256"
        }
      ],
      "name": "SetRoyalty",
      "type": "event"
    },
    {
      "inputs": [],
      "name": "defaultRoyaltyFraction",
      "outputs": [
        {
          "internalType": "uint256",
          "name": "",
          "type": "uint256"
        }
      ],
      "stateMutability": "view",
      "type": "function"
    },
    {
      "inputs": [],
      "name": "owner",
      "outputs": [
        {
          "internalType": "address",
          "name": "",
          "type": "address"
        }
      ],
      "stateMutability": "view",
      "type": "function"
    },
    {
      "inputs": [],
      "name": "renounceOwnership",
      "outputs": [],
      "stateMutability": "nonpayable",
      "type": "function"
    },
    {
      "inputs": [
        {
          "internalType": "address",
          "name": "contractAddress",
          "type": "address"
        }
      ],
      "name": "royalty",
      "outputs": [
        {
          "components": [
            {
              "internalType": "address",
              "name": "recipient",
              "type": "address"
            },
            {
              "internalType": "uint256",
              "name": "feeFraction",
              "type": "uint256"
            },
            {
              "internalType": "address",
              "name": "setBy",
              "type": "address"
            }
          ],
          "internalType": "struct IRoyalty.ERC721CollectionRoyalty",
          "name": "",
          "type": "tuple"
        }
      ],
      "stateMutability": "view",
      "type": "function"
    },
    {
      "inputs": [],
      "name": "royaltyUpperLimit",
      "outputs": [
        {
          "internalType": "uint256",
          "name": "",
          "type": "uint256"
        }
      ],
      "stateMutability": "view",
      "type": "function"
    },
    {
      "inputs": [
        {
          "internalType": "address",
          "name": "contractAddress",
          "type": "address"
        },
        {
          "internalType": "address",
          "name": "newRecipient",
          "type": "address"
        },
        {
          "internalType": "uint256",
          "name": "feeFraction",
          "type": "uint256"
        }
      ],
      "name": "setRoyalty",
      "outputs": [],
      "stateMutability": "nonpayable",
      "type": "function"
    },
    {
      "inputs": [
        {
          "internalType": "address",
          "name": "contractAddress",
          "type": "address"
        },
        {
          "internalType": "address",
          "name": "newRecipient",
          "type": "address"
        },
        {
          "internalType": "uint256",
          "name": "feeFraction",
          "type": "uint256"
        }
      ],
      "name": "setRoyaltyForCollection",
      "outputs": [],
      "stateMutability": "nonpayable",
      "type": "function"
    },
    {
      "inputs": [
        {
          "internalType": "address",
          "name": "newOwner",
          "type": "address"
        }
      ],
      "name": "transferOwnership",
      "outputs": [],
      "stateMutability": "nonpayable",
      "type": "function"
    },
    {
      "inputs": [
        {
          "internalType": "uint256",
          "name": "_newUpperLimit",
          "type": "uint256"
        }
      ],
      "name": "updateRoyaltyUpperLimit",
      "outputs": [],
      "stateMutability": "nonpayable",
      "type": "function"
    }
  ],
  "bytecode": "0x60806040526014600155605060025534801561001a57600080fd5b5061002433610029565b610079565b600080546001600160a01b038381166001600160a01b0319831681178455604051919092169283917f8be0079c531659141344cd1fd0a4f28419497f9722a3daafe3b4186f6b6457e09190a35050565b61074a806100886000396000f3fe608060405234801561001057600080fd5b50600436106100935760003560e01c8063861b69d611610066578063861b69d6146100e45780638da5cb5b14610127578063cdea490d14610142578063ee8ef34d14610155578063f2fde38b1461015e57600080fd5b806319d334cb1461009857806355c338aa146100ad5780636d0042b8146100c0578063715018a6146100dc575b600080fd5b6100ab6100a6366004610623565b610171565b005b6100ab6100bb366004610623565b6102c2565b6100c960015481565b6040519081526020015b60405180910390f35b6100ab61036b565b6100f76100f2366004610664565b61037f565b6040805182516001600160a01b0390811682526020808501519083015292820151909216908201526060016100d3565b6000546040516001600160a01b0390911681526020016100d3565b6100ab610150366004610688565b610470565b6100c960025481565b6100ab61016c366004610664565b61047d565b6101796104f6565b6002548111156101a45760405162461bcd60e51b815260040161019b906106a1565b60405180910390fd5b60006101af8461037f565b604001516001600160a01b03161461021a5760405162461bcd60e51b815260206004820152602860248201527f436f6c6c656374696f6e20726f79616c747920726563697069656e7420616c726044820152671958591e481cd95d60c21b606482015260840161019b565b604080516060810182526001600160a01b038085168083526020808401868152338587019081528985166000818152600390945292879020955186549086166001600160a01b03199182161787559151600187015551600290950180549590941694169390931790915591517fb6b61d78ac5372b51940cf3b322ea21839c456cade69acdf1b9fb9a6f79d6ff7906102b59085815260200190565b60405180910390a3505050565b6002548111156102e45760405162461bcd60e51b815260040161019b906106a1565b6102ed8361037f565b516001600160a01b0316331461021a5760405162461bcd60e51b815260206004820152603760248201527f4f6e6c792045524337323120726f79616c747920726563697069656e7420697360448201527f20616c6c6f77656420746f2073657420526f79616c7479000000000000000000606482015260840161019b565b6103736104f6565b61037d6000610550565b565b60408051606081018252600080825260208201819052918101919091526001600160a01b03828116600090815260036020526040902060020154161561040557506001600160a01b039081166000908152600360209081526040918290208251606081018452815485168152600182015492810192909252600201549092169082015290565b6000610410836105a0565b90506001600160a01b0381161561044c57604080516060810182526001600160a01b039092168252600154602083015260009082015292915050565b50506040805160608101825260008082526020820181905291810191909152919050565b6104786104f6565b600255565b6104856104f6565b6001600160a01b0381166104ea5760405162461bcd60e51b815260206004820152602660248201527f4f776e61626c653a206e6577206f776e657220697320746865207a65726f206160448201526564647265737360d01b606482015260840161019b565b6104f381610550565b50565b6000546001600160a01b0316331461037d5760405162461bcd60e51b815260206004820181905260248201527f4f776e61626c653a2063616c6c6572206973206e6f7420746865206f776e6572604482015260640161019b565b600080546001600160a01b038381166001600160a01b0319831681178455604051919092169283917f8be0079c531659141344cd1fd0a4f28419497f9722a3daafe3b4186f6b6457e09190a35050565b6000816001600160a01b0316638da5cb5b6040518163ffffffff1660e01b8152600401602060405180830381865afa9250505080156105fc575060408051601f3d908101601f191682019092526105f9918101906106f7565b60015b61060857506000919050565b92915050565b6001600160a01b03811681146104f357600080fd5b60008060006060848603121561063857600080fd5b83356106438161060e565b925060208401356106538161060e565b929592945050506040919091013590565b60006020828403121561067657600080fd5b81356106818161060e565b9392505050565b60006020828403121561069a57600080fd5b5035919050565b60208082526036908201527f506c65617365207365742074686520726f79616c74792070657263656e74616e60408201527567652062656c6f7720616c6c6f7765642072616e676560501b606082015260800190565b60006020828403121561070957600080fd5b81516106818161060e56fea2646970667358221220ffdb159154d72d1062335beb27ca679a597abcd316cf81d4a8500d2bb9cdb5d964736f6c63430008100033",
  "linkReferences": {},
  "deployedLinkReferences": {}
}