{
  "_format": "hh-sol-artifact-1",
  "contractName": "TheeERC721",
  "sourceName": "contracts/TheeERC721.sol",
  "abi": [
    {
      "inputs": [
        {
          "internalType": "string",
          "name": "_name",
          "type": "string"
        },
        {
          "internalType": "string",
          "name": "_symbol",
          "type": "string"
        },
        {
          "internalType": "address",
          "name": "minter",
          "type": "address"
        }
      ],
      "stateMutability": "nonpayable",
      "type": "constructor"
    },
    {
      "anonymous": false,
      "inputs": [
        {
          "indexed": true,
          "internalType": "address",
          "name": "owner",
          "type": "address"
        },
        {
          "indexed": true,
          "internalType": "address",
          "name": "approved",
          "type": "address"
        },
        {
          "indexed": true,
          "internalType": "uint256",
          "name": "tokenId",
          "type": "uint256"
        }
      ],
      "name": "Approval",
      "type": "event"
    },
    {
      "anonymous": false,
      "inputs": [
        {
          "indexed": true,
          "internalType": "address",
          "name": "owner",
          "type": "address"
        },
        {
          "indexed": true,
          "internalType": "address",
          "name": "operator",
          "type": "address"
        },
        {
          "indexed": false,
          "internalType": "bool",
          "name": "approved",
          "type": "bool"
        }
      ],
      "name": "ApprovalForAll",
      "type": "event"
    },
    {
      "anonymous": false,
      "inputs": [
        {
          "indexed": true,
          "internalType": "bytes32",
          "name": "role",
          "type": "bytes32"
        },
        {
          "indexed": true,
          "internalType": "bytes32",
          "name": "previousAdminRole",
          "type": "bytes32"
        },
        {
          "indexed": true,
          "internalType": "bytes32",
          "name": "newAdminRole",
          "type": "bytes32"
        }
      ],
      "name": "RoleAdminChanged",
      "type": "event"
    },
    {
      "anonymous": false,
      "inputs": [
        {
          "indexed": true,
          "internalType": "bytes32",
          "name": "role",
          "type": "bytes32"
        },
        {
          "indexed": true,
          "internalType": "address",
          "name": "account",
          "type": "address"
        },
        {
          "indexed": true,
          "internalType": "address",
          "name": "sender",
          "type": "address"
        }
      ],
      "name": "RoleGranted",
      "type": "event"
    },
    {
      "anonymous": false,
      "inputs": [
        {
          "indexed": true,
          "internalType": "bytes32",
          "name": "role",
          "type": "bytes32"
        },
        {
          "indexed": true,
          "internalType": "address",
          "name": "account",
          "type": "address"
        },
        {
          "indexed": true,
          "internalType": "address",
          "name": "sender",
          "type": "address"
        }
      ],
      "name": "RoleRevoked",
      "type": "event"
    },
    {
      "anonymous": false,
      "inputs": [
        {
          "indexed": true,
          "internalType": "address",
          "name": "from",
          "type": "address"
        },
        {
          "indexed": true,
          "internalType": "address",
          "name": "to",
          "type": "address"
        },
        {
          "indexed": true,
          "internalType": "uint256",
          "name": "tokenId",
          "type": "uint256"
        }
      ],
      "name": "Transfer",
      "type": "event"
    },
    {
      "inputs": [],
      "name": "DEFAULT_ADMIN_ROLE",
      "outputs": [
        {
          "internalType": "bytes32",
          "name": "",
          "type": "bytes32"
        }
      ],
      "stateMutability": "view",
      "type": "function"
    },
    {
      "inputs": [],
      "name": "MINTER_ROLE",
      "outputs": [
        {
          "internalType": "bytes32",
          "name": "",
          "type": "bytes32"
        }
      ],
      "stateMutability": "view",
      "type": "function"
    },
    {
      "inputs": [
        {
          "internalType": "address",
          "name": "to",
          "type": "address"
        },
        {
          "internalType": "uint256",
          "name": "tokenId",
          "type": "uint256"
        }
      ],
      "name": "approve",
      "outputs": [],
      "stateMutability": "nonpayable",
      "type": "function"
    },
    {
      "inputs": [
        {
          "internalType": "address",
          "name": "owner",
          "type": "address"
        }
      ],
      "name": "balanceOf",
      "outputs": [
        {
          "internalType": "uint256",
          "name": "",
          "type": "uint256"
        }
      ],
      "stateMutability": "view",
      "type": "function"
    },
    {
      "inputs": [
        {
          "internalType": "uint256",
          "name": "tokenId",
          "type": "uint256"
        }
      ],
      "name": "getApproved",
      "outputs": [
        {
          "internalType": "address",
          "name": "",
          "type": "address"
        }
      ],
      "stateMutability": "view",
      "type": "function"
    },
    {
      "inputs": [
        {
          "internalType": "bytes32",
          "name": "role",
          "type": "bytes32"
        }
      ],
      "name": "getRoleAdmin",
      "outputs": [
        {
          "internalType": "bytes32",
          "name": "",
          "type": "bytes32"
        }
      ],
      "stateMutability": "view",
      "type": "function"
    },
    {
      "inputs": [
        {
          "internalType": "bytes32",
          "name": "role",
          "type": "bytes32"
        },
        {
          "internalType": "address",
          "name": "account",
          "type": "address"
        }
      ],
      "name": "grantRole",
      "outputs": [],
      "stateMutability": "nonpayable",
      "type": "function"
    },
    {
      "inputs": [
        {
          "internalType": "bytes32",
          "name": "role",
          "type": "bytes32"
        },
        {
          "internalType": "address",
          "name": "account",
          "type": "address"
        }
      ],
      "name": "hasRole",
      "outputs": [
        {
          "internalType": "bool",
          "name": "",
          "type": "bool"
        }
      ],
      "stateMutability": "view",
      "type": "function"
    },
    {
      "inputs": [
        {
          "internalType": "address",
          "name": "owner",
          "type": "address"
        },
        {
          "internalType": "address",
          "name": "operator",
          "type": "address"
        }
      ],
      "name": "isApprovedForAll",
      "outputs": [
        {
          "internalType": "bool",
          "name": "",
          "type": "bool"
        }
      ],
      "stateMutability": "view",
      "type": "function"
    },
    {
      "inputs": [
        {
          "internalType": "uint256",
          "name": "_tokenId",
          "type": "uint256"
        },
        {
          "internalType": "string",
          "name": "_tokenURI",
          "type": "string"
        }
      ],
      "name": "mint",
      "outputs": [],
      "stateMutability": "nonpayable",
      "type": "function"
    },
    {
      "inputs": [],
      "name": "name",
      "outputs": [
        {
          "internalType": "string",
          "name": "",
          "type": "string"
        }
      ],
      "stateMutability": "view",
      "type": "function"
    },
    {
      "inputs": [
        {
          "internalType": "uint256",
          "name": "tokenId",
          "type": "uint256"
        }
      ],
      "name": "ownerOf",
      "outputs": [
        {
          "internalType": "address",
          "name": "",
          "type": "address"
        }
      ],
      "stateMutability": "view",
      "type": "function"
    },
    {
      "inputs": [
        {
          "internalType": "bytes32",
          "name": "role",
          "type": "bytes32"
        },
        {
          "internalType": "address",
          "name": "account",
          "type": "address"
        }
      ],
      "name": "renounceRole",
      "outputs": [],
      "stateMutability": "nonpayable",
      "type": "function"
    },
    {
      "inputs": [
        {
          "internalType": "bytes32",
          "name": "role",
          "type": "bytes32"
        },
        {
          "internalType": "address",
          "name": "account",
          "type": "address"
        }
      ],
      "name": "revokeRole",
      "outputs": [],
      "stateMutability": "nonpayable",
      "type": "function"
    },
    {
      "inputs": [
        {
          "internalType": "address",
          "name": "from",
          "type": "address"
        },
        {
          "internalType": "address",
          "name": "to",
          "type": "address"
        },
        {
          "internalType": "uint256",
          "name": "tokenId",
          "type": "uint256"
        }
      ],
      "name": "safeTransferFrom",
      "outputs": [],
      "stateMutability": "nonpayable",
      "type": "function"
    },
    {
      "inputs": [
        {
          "internalType": "address",
          "name": "from",
          "type": "address"
        },
        {
          "internalType": "address",
          "name": "to",
          "type": "address"
        },
        {
          "internalType": "uint256",
          "name": "tokenId",
          "type": "uint256"
        },
        {
          "internalType": "bytes",
          "name": "data",
          "type": "bytes"
        }
      ],
      "name": "safeTransferFrom",
      "outputs": [],
      "stateMutability": "nonpayable",
      "type": "function"
    },
    {
      "inputs": [
        {
          "internalType": "address",
          "name": "operator",
          "type": "address"
        },
        {
          "internalType": "bool",
          "name": "approved",
          "type": "bool"
        }
      ],
      "name": "setApprovalForAll",
      "outputs": [],
      "stateMutability": "nonpayable",
      "type": "function"
    },
    {
      "inputs": [
        {
          "internalType": "bytes4",
          "name": "interfaceId",
          "type": "bytes4"
        }
      ],
      "name": "supportsInterface",
      "outputs": [
        {
          "internalType": "bool",
          "name": "",
          "type": "bool"
        }
      ],
      "stateMutability": "view",
      "type": "function"
    },
    {
      "inputs": [],
      "name": "symbol",
      "outputs": [
        {
          "internalType": "string",
          "name": "",
          "type": "string"
        }
      ],
      "stateMutability": "view",
      "type": "function"
    },
    {
      "inputs": [
        {
          "internalType": "uint256",
          "name": "tokenId",
          "type": "uint256"
        }
      ],
      "name": "tokenURI",
      "outputs": [
        {
          "internalType": "string",
          "name": "",
          "type": "string"
        }
      ],
      "stateMutability": "view",
      "type": "function"
    },
    {
      "inputs": [
        {
          "internalType": "address",
          "name": "from",
          "type": "address"
        },
        {
          "internalType": "address",
          "name": "to",
          "type": "address"
        },
        {
          "internalType": "uint256",
          "name": "tokenId",
          "type": "uint256"
        }
      ],
      "name": "transferFrom",
      "outputs": [],
      "stateMutability": "nonpayable",
      "type": "function"
    }
  ],
  "bytecode": "0x60806040523480156200001157600080fd5b50604051620020c1380380620020c183398101604081905262000034916200020a565b8282600062000044838262000326565b50600162000053828262000326565b505050620000887f9f2df0fed2c77648de5860a4cc508cd0818c85b8b8a1ab4ceeef8d981c8956a6826200009160201b60201c565b505050620003f2565b6200009d8282620000a1565b5050565b60008281526007602090815260408083206001600160a01b038516845290915290205460ff166200009d5760008281526007602090815260408083206001600160a01b03851684529091529020805460ff19166001179055620001013390565b6001600160a01b0316816001600160a01b0316837f2f8788117e7eff1d82e926ec794901d17c78024a50270940304540a733656f0d60405160405180910390a45050565b634e487b7160e01b600052604160045260246000fd5b600082601f8301126200016d57600080fd5b81516001600160401b03808211156200018a576200018a62000145565b604051601f8301601f19908116603f01168101908282118183101715620001b557620001b562000145565b81604052838152602092508683858801011115620001d257600080fd5b600091505b83821015620001f65785820183015181830184015290820190620001d7565b600093810190920192909252949350505050565b6000806000606084860312156200022057600080fd5b83516001600160401b03808211156200023857600080fd5b62000246878388016200015b565b945060208601519150808211156200025d57600080fd5b506200026c868287016200015b565b604086015190935090506001600160a01b03811681146200028c57600080fd5b809150509250925092565b600181811c90821680620002ac57607f821691505b602082108103620002cd57634e487b7160e01b600052602260045260246000fd5b50919050565b601f8211156200032157600081815260208120601f850160051c81016020861015620002fc5750805b601f850160051c820191505b818110156200031d5782815560010162000308565b5050505b505050565b81516001600160401b0381111562000342576200034262000145565b6200035a8162000353845462000297565b84620002d3565b602080601f831160018114620003925760008415620003795750858301515b600019600386901b1c1916600185901b1785556200031d565b600085815260208120601f198616915b82811015620003c357888601518255948401946001909101908401620003a2565b5085821015620003e25787850151600019600388901b60f8161c191681555b5050505050600190811b01905550565b611cbf80620004026000396000f3fe608060405234801561001057600080fd5b50600436106101375760003560e01c806370a08231116100b8578063a22cb4651161007c578063a22cb46514610292578063b88d4fde146102a5578063c87b56dd146102b8578063d5391393146102cb578063d547741f146102f2578063e985e9c51461030557600080fd5b806370a082311461024957806377097fc81461025c57806391d148541461026f57806395d89b4114610282578063a217fddf1461028a57600080fd5b8063248a9ca3116100ff578063248a9ca3146101cc5780632f2ff15d146101fd57806336568abe1461021057806342842e0e146102235780636352211e1461023657600080fd5b806301ffc9a71461013c57806306fdde0314610164578063081812fc14610179578063095ea7b3146101a457806323b872dd146101b9575b600080fd5b61014f61014a3660046115ac565b610341565b60405190151581526020015b60405180910390f35b61016c610361565b60405161015b9190611619565b61018c61018736600461162c565b6103f3565b6040516001600160a01b03909116815260200161015b565b6101b76101b2366004611661565b61041a565b005b6101b76101c736600461168b565b610534565b6101ef6101da36600461162c565b60009081526007602052604090206001015490565b60405190815260200161015b565b6101b761020b3660046116c7565b610565565b6101b761021e3660046116c7565b61058a565b6101b761023136600461168b565b610608565b61018c61024436600461162c565b610623565b6101ef6102573660046116f3565b610683565b6101b761026a36600461179a565b610709565b61014f61027d3660046116c7565b61071d565b61016c610748565b6101ef600081565b6101b76102a03660046117f5565b610757565b6101b76102b3366004611831565b610762565b61016c6102c636600461162c565b61079a565b6101ef7f9f2df0fed2c77648de5860a4cc508cd0818c85b8b8a1ab4ceeef8d981c8956a681565b6101b76103003660046116c7565b6108aa565b61014f6103133660046118ad565b6001600160a01b03918216600090815260056020908152604080832093909416825291909152205460ff1690565b600061034c826108cf565b8061035b575061035b8261091f565b92915050565b606060008054610370906118d7565b80601f016020809104026020016040519081016040528092919081815260200182805461039c906118d7565b80156103e95780601f106103be576101008083540402835291602001916103e9565b820191906000526020600020905b8154815290600101906020018083116103cc57829003601f168201915b5050505050905090565b60006103fe82610944565b506000908152600460205260409020546001600160a01b031690565b600061042582610623565b9050806001600160a01b0316836001600160a01b0316036104975760405162461bcd60e51b815260206004820152602160248201527f4552433732313a20617070726f76616c20746f2063757272656e74206f776e656044820152603960f91b60648201526084015b60405180910390fd5b336001600160a01b03821614806104b357506104b38133610313565b6105255760405162461bcd60e51b815260206004820152603d60248201527f4552433732313a20617070726f76652063616c6c6572206973206e6f7420746f60448201527f6b656e206f776e6572206f7220617070726f76656420666f7220616c6c000000606482015260840161048e565b61052f83836109a6565b505050565b61053e3382610a14565b61055a5760405162461bcd60e51b815260040161048e90611911565b61052f838383610a92565b60008281526007602052604090206001015461058081610c03565b61052f8383610c0d565b6001600160a01b03811633146105fa5760405162461bcd60e51b815260206004820152602f60248201527f416363657373436f6e74726f6c3a2063616e206f6e6c792072656e6f756e636560448201526e103937b632b9903337b91039b2b63360891b606482015260840161048e565b6106048282610c93565b5050565b61052f83838360405180602001604052806000815250610762565b6000818152600260205260408120546001600160a01b03168061035b5760405162461bcd60e51b8152602060048201526018602482015277115490cdcc8c4e881a5b9d985b1a59081d1bdad95b88125160421b604482015260640161048e565b60006001600160a01b0382166106ed5760405162461bcd60e51b815260206004820152602960248201527f4552433732313a2061646472657373207a65726f206973206e6f7420612076616044820152683634b21037bbb732b960b91b606482015260840161048e565b506001600160a01b031660009081526003602052604090205490565b6107133383610cfa565b6106048282610e93565b60009182526007602090815260408084206001600160a01b0393909316845291905290205460ff1690565b606060018054610370906118d7565b610604338383610f26565b61076c3383610a14565b6107885760405162461bcd60e51b815260040161048e90611911565b61079484848484610ff4565b50505050565b60606107a582610944565b600082815260066020526040812080546107be906118d7565b80601f01602080910402602001604051908101604052809291908181526020018280546107ea906118d7565b80156108375780601f1061080c57610100808354040283529160200191610837565b820191906000526020600020905b81548152906001019060200180831161081a57829003601f168201915b50505050509050600061085560408051602081019091526000815290565b90508051600003610867575092915050565b81511561089957808260405160200161088192919061195e565b60405160208183030381529060405292505050919050565b6108a284611027565b949350505050565b6000828152600760205260409020600101546108c581610c03565b61052f8383610c93565b60006001600160e01b031982166380ac58cd60e01b148061090057506001600160e01b03198216635b5e139f60e01b145b8061035b57506301ffc9a760e01b6001600160e01b031983161461035b565b60006001600160e01b03198216637965db0b60e01b148061035b575061035b826108cf565b6000818152600260205260409020546001600160a01b03166109a35760405162461bcd60e51b8152602060048201526018602482015277115490cdcc8c4e881a5b9d985b1a59081d1bdad95b88125160421b604482015260640161048e565b50565b600081815260046020526040902080546001600160a01b0319166001600160a01b03841690811790915581906109db82610623565b6001600160a01b03167f8c5be1e5ebec7d5bd14f71427d1e84f3dd0314c0f7b2291e5b200ac8c7c3b92560405160405180910390a45050565b600080610a2083610623565b9050806001600160a01b0316846001600160a01b03161480610a6757506001600160a01b0380821660009081526005602090815260408083209388168352929052205460ff165b806108a25750836001600160a01b0316610a80846103f3565b6001600160a01b031614949350505050565b826001600160a01b0316610aa582610623565b6001600160a01b031614610acb5760405162461bcd60e51b815260040161048e9061198d565b6001600160a01b038216610b2d5760405162461bcd60e51b8152602060048201526024808201527f4552433732313a207472616e7366657220746f20746865207a65726f206164646044820152637265737360e01b606482015260840161048e565b610b3a838383600161109b565b826001600160a01b0316610b4d82610623565b6001600160a01b031614610b735760405162461bcd60e51b815260040161048e9061198d565b600081815260046020908152604080832080546001600160a01b03199081169091556001600160a01b0387811680865260038552838620805460001901905590871680865283862080546001019055868652600290945282852080549092168417909155905184937fddf252ad1be2c89b69c2b068fc378daa952ba7f163c4a11628f55a4df523b3ef91a4505050565b6109a38133611123565b610c17828261071d565b6106045760008281526007602090815260408083206001600160a01b03851684529091529020805460ff19166001179055610c4f3390565b6001600160a01b0316816001600160a01b0316837f2f8788117e7eff1d82e926ec794901d17c78024a50270940304540a733656f0d60405160405180910390a45050565b610c9d828261071d565b156106045760008281526007602090815260408083206001600160a01b0385168085529252808320805460ff1916905551339285917ff6391f5c32d9c69d2a47ea670b442974b53935d1edc7fd64eb21e047a839171b9190a45050565b6001600160a01b038216610d505760405162461bcd60e51b815260206004820181905260248201527f4552433732313a206d696e7420746f20746865207a65726f2061646472657373604482015260640161048e565b6000818152600260205260409020546001600160a01b031615610db55760405162461bcd60e51b815260206004820152601c60248201527f4552433732313a20746f6b656e20616c7265616479206d696e74656400000000604482015260640161048e565b610dc360008383600161109b565b6000818152600260205260409020546001600160a01b031615610e285760405162461bcd60e51b815260206004820152601c60248201527f4552433732313a20746f6b656e20616c7265616479206d696e74656400000000604482015260640161048e565b6001600160a01b038216600081815260036020908152604080832080546001019055848352600290915280822080546001600160a01b0319168417905551839291907fddf252ad1be2c89b69c2b068fc378daa952ba7f163c4a11628f55a4df523b3ef908290a45050565b6000828152600260205260409020546001600160a01b0316610f0e5760405162461bcd60e51b815260206004820152602e60248201527f45524337323155524953746f726167653a2055524920736574206f66206e6f6e60448201526d32bc34b9ba32b73a103a37b5b2b760911b606482015260840161048e565b600082815260066020526040902061052f8282611a20565b816001600160a01b0316836001600160a01b031603610f875760405162461bcd60e51b815260206004820152601960248201527f4552433732313a20617070726f766520746f2063616c6c657200000000000000604482015260640161048e565b6001600160a01b03838116600081815260056020908152604080832094871680845294825291829020805460ff191686151590811790915591519182527f17307eab39ab6107e8899845ad3d59bd9653f200f220920489ca2b5937696c31910160405180910390a3505050565b610fff848484610a92565b61100b8484848461117c565b6107945760405162461bcd60e51b815260040161048e90611ae0565b606061103282610944565b600061104960408051602081019091526000815290565b905060008151116110695760405180602001604052806000815250611094565b806110738461127d565b60405160200161108492919061195e565b6040516020818303038152906040525b9392505050565b6001811115610794576001600160a01b038416156110e1576001600160a01b038416600090815260036020526040812080548392906110db908490611b48565b90915550505b6001600160a01b03831615610794576001600160a01b03831660009081526003602052604081208054839290611118908490611b5b565b909155505050505050565b61112d828261071d565b6106045761113a81611310565b611145836020611322565b604051602001611156929190611b6e565b60408051601f198184030181529082905262461bcd60e51b825261048e91600401611619565b60006001600160a01b0384163b1561127257604051630a85bd0160e11b81526001600160a01b0385169063150b7a02906111c0903390899088908890600401611be3565b6020604051808303816000875af19250505080156111fb575060408051601f3d908101601f191682019092526111f891810190611c20565b60015b611258573d808015611229576040519150601f19603f3d011682016040523d82523d6000602084013e61122e565b606091505b5080516000036112505760405162461bcd60e51b815260040161048e90611ae0565b805181602001fd5b6001600160e01b031916630a85bd0160e11b1490506108a2565b506001949350505050565b6060600061128a836114be565b600101905060008167ffffffffffffffff8111156112aa576112aa61170e565b6040519080825280601f01601f1916602001820160405280156112d4576020820181803683370190505b5090508181016020015b600019016f181899199a1a9b1b9c1cb0b131b232b360811b600a86061a8153600a85049450846112de57509392505050565b606061035b6001600160a01b03831660145b60606000611331836002611c3d565b61133c906002611b5b565b67ffffffffffffffff8111156113545761135461170e565b6040519080825280601f01601f19166020018201604052801561137e576020820181803683370190505b509050600360fc1b8160008151811061139957611399611c5c565b60200101906001600160f81b031916908160001a905350600f60fb1b816001815181106113c8576113c8611c5c565b60200101906001600160f81b031916908160001a90535060006113ec846002611c3d565b6113f7906001611b5b565b90505b600181111561146f576f181899199a1a9b1b9c1cb0b131b232b360811b85600f166010811061142b5761142b611c5c565b1a60f81b82828151811061144157611441611c5c565b60200101906001600160f81b031916908160001a90535060049490941c9361146881611c72565b90506113fa565b5083156110945760405162461bcd60e51b815260206004820181905260248201527f537472696e67733a20686578206c656e67746820696e73756666696369656e74604482015260640161048e565b60008072184f03e93ff9f4daa797ed6e38ed64bf6a1f0160401b83106114fd5772184f03e93ff9f4daa797ed6e38ed64bf6a1f0160401b830492506040015b6d04ee2d6d415b85acef81000000008310611529576d04ee2d6d415b85acef8100000000830492506020015b662386f26fc10000831061154757662386f26fc10000830492506010015b6305f5e100831061155f576305f5e100830492506008015b612710831061157357612710830492506004015b60648310611585576064830492506002015b600a831061035b5760010192915050565b6001600160e01b0319811681146109a357600080fd5b6000602082840312156115be57600080fd5b813561109481611596565b60005b838110156115e45781810151838201526020016115cc565b50506000910152565b600081518084526116058160208601602086016115c9565b601f01601f19169290920160200192915050565b60208152600061109460208301846115ed565b60006020828403121561163e57600080fd5b5035919050565b80356001600160a01b038116811461165c57600080fd5b919050565b6000806040838503121561167457600080fd5b61167d83611645565b946020939093013593505050565b6000806000606084860312156116a057600080fd5b6116a984611645565b92506116b760208501611645565b9150604084013590509250925092565b600080604083850312156116da57600080fd5b823591506116ea60208401611645565b90509250929050565b60006020828403121561170557600080fd5b61109482611645565b634e487b7160e01b600052604160045260246000fd5b600067ffffffffffffffff8084111561173f5761173f61170e565b604051601f8501601f19908116603f011681019082821181831017156117675761176761170e565b8160405280935085815286868601111561178057600080fd5b858560208301376000602087830101525050509392505050565b600080604083850312156117ad57600080fd5b82359150602083013567ffffffffffffffff8111156117cb57600080fd5b8301601f810185136117dc57600080fd5b6117eb85823560208401611724565b9150509250929050565b6000806040838503121561180857600080fd5b61181183611645565b91506020830135801515811461182657600080fd5b809150509250929050565b6000806000806080858703121561184757600080fd5b61185085611645565b935061185e60208601611645565b925060408501359150606085013567ffffffffffffffff81111561188157600080fd5b8501601f8101871361189257600080fd5b6118a187823560208401611724565b91505092959194509250565b600080604083850312156118c057600080fd5b6118c983611645565b91506116ea60208401611645565b600181811c908216806118eb57607f821691505b60208210810361190b57634e487b7160e01b600052602260045260246000fd5b50919050565b6020808252602d908201527f4552433732313a2063616c6c6572206973206e6f7420746f6b656e206f776e6560408201526c1c881bdc88185c1c1c9bdd9959609a1b606082015260800190565b600083516119708184602088016115c9565b8351908301906119848183602088016115c9565b01949350505050565b60208082526025908201527f4552433732313a207472616e736665722066726f6d20696e636f72726563742060408201526437bbb732b960d91b606082015260800190565b601f82111561052f57600081815260208120601f850160051c810160208610156119f95750805b601f850160051c820191505b81811015611a1857828155600101611a05565b505050505050565b815167ffffffffffffffff811115611a3a57611a3a61170e565b611a4e81611a4884546118d7565b846119d2565b602080601f831160018114611a835760008415611a6b5750858301515b600019600386901b1c1916600185901b178555611a18565b600085815260208120601f198616915b82811015611ab257888601518255948401946001909101908401611a93565b5085821015611ad05787850151600019600388901b60f8161c191681555b5050505050600190811b01905550565b60208082526032908201527f4552433732313a207472616e7366657220746f206e6f6e20455243373231526560408201527131b2b4bb32b91034b6b83632b6b2b73a32b960711b606082015260800190565b634e487b7160e01b600052601160045260246000fd5b8181038181111561035b5761035b611b32565b8082018082111561035b5761035b611b32565b7f416363657373436f6e74726f6c3a206163636f756e7420000000000000000000815260008351611ba68160178501602088016115c9565b7001034b99036b4b9b9b4b733903937b6329607d1b6017918401918201528351611bd78160288401602088016115c9565b01602801949350505050565b6001600160a01b0385811682528416602082015260408101839052608060608201819052600090611c16908301846115ed565b9695505050505050565b600060208284031215611c3257600080fd5b815161109481611596565b6000816000190483118215151615611c5757611c57611b32565b500290565b634e487b7160e01b600052603260045260246000fd5b600081611c8157611c81611b32565b50600019019056fea2646970667358221220f47fb9ab596ef02680ed945af8c2cd92f4ff5217e76d3fdd18ca88a934da74c164736f6c63430008100033",
  "linkReferences": {},
  "deployedLinkReferences": {}
}